{
  "_format": "hh-sol-artifact-1",
  "contractName": "Geocache",
  "sourceName": "contracts/Geocache.sol",
  "abi": [
    {
      "inputs": [
        {
          "internalType": "address",
          "name": "_creatorContract",
          "type": "address"
        }
      ],
      "stateMutability": "nonpayable",
      "type": "constructor"
    },
    {
      "inputs": [],
      "name": "NonExistentToken",
      "type": "error"
    },
    {
      "inputs": [],
      "name": "NotActiveGeocache",
      "type": "error"
    },
    {
      "inputs": [],
      "name": "NotCreator",
      "type": "error"
    },
    {
      "inputs": [],
      "name": "UserAlreadyFound",
      "type": "error"
    },
    {
      "anonymous": false,
      "inputs": [
        {
          "indexed": true,
          "internalType": "address",
          "name": "account",
          "type": "address"
        },
        {
          "indexed": true,
          "internalType": "address",
          "name": "sender",
          "type": "address"
        }
      ],
      "name": "AdminApproved",
      "type": "event"
    },
    {
      "anonymous": false,
      "inputs": [
        {
          "indexed": true,
          "internalType": "address",
          "name": "account",
          "type": "address"
        },
        {
          "indexed": true,
          "internalType": "address",
          "name": "sender",
          "type": "address"
        }
      ],
      "name": "AdminRevoked",
      "type": "event"
    },
    {
      "anonymous": false,
      "inputs": [
        {
          "indexed": false,
          "internalType": "address",
          "name": "creator",
          "type": "address"
        },
        {
          "indexed": false,
          "internalType": "string",
          "name": "name",
          "type": "string"
        },
        {
          "indexed": false,
          "internalType": "uint256",
          "name": "id",
          "type": "uint256"
        }
      ],
      "name": "GeocacheCreated",
      "type": "event"
    },
    {
      "anonymous": false,
      "inputs": [
        {
          "indexed": false,
          "internalType": "address",
          "name": "receiver",
          "type": "address"
        },
        {
          "indexed": false,
          "internalType": "uint256",
          "name": "geocacheIndex",
          "type": "uint256"
        },
        {
          "indexed": false,
          "internalType": "uint256",
          "name": "itemIndex",
          "type": "uint256"
        }
      ],
      "name": "GeocacheItemMinted",
      "type": "event"
    },
    {
      "anonymous": false,
      "inputs": [
        {
          "indexed": true,
          "internalType": "address",
          "name": "previousOwner",
          "type": "address"
        },
        {
          "indexed": true,
          "internalType": "address",
          "name": "newOwner",
          "type": "address"
        }
      ],
      "name": "OwnershipTransferred",
      "type": "event"
    },
    {
      "inputs": [
        {
          "internalType": "address",
          "name": "admin",
          "type": "address"
        }
      ],
      "name": "approveAdmin",
      "outputs": [],
      "stateMutability": "nonpayable",
      "type": "function"
    },
    {
      "inputs": [],
      "name": "creatorContract",
      "outputs": [
        {
          "internalType": "address",
          "name": "",
          "type": "address"
        }
      ],
      "stateMutability": "view",
      "type": "function"
    },
    {
      "inputs": [
        {
          "internalType": "uint256",
          "name": "",
          "type": "uint256"
        }
      ],
      "name": "geocacheToNumFound",
      "outputs": [
        {
          "internalType": "uint256",
          "name": "",
          "type": "uint256"
        }
      ],
      "stateMutability": "view",
      "type": "function"
    },
    {
      "inputs": [],
      "name": "getAdmins",
      "outputs": [
        {
          "internalType": "address[]",
          "name": "admins",
          "type": "address[]"
        }
      ],
      "stateMutability": "view",
      "type": "function"
    },
    {
      "inputs": [],
      "name": "getAllActiveGeocacheIDs",
      "outputs": [
        {
          "internalType": "uint256[]",
          "name": "",
          "type": "uint256[]"
        }
      ],
      "stateMutability": "view",
      "type": "function"
    },
    {
      "inputs": [
        {
          "internalType": "uint256",
          "name": "geocacheIndex",
          "type": "uint256"
        }
      ],
      "name": "getGeolocationsOfGeocache",
      "outputs": [
        {
          "internalType": "string[]",
          "name": "",
          "type": "string[]"
        }
      ],
      "stateMutability": "view",
      "type": "function"
    },
    {
      "inputs": [
        {
          "internalType": "address",
          "name": "_user",
          "type": "address"
        }
      ],
      "name": "getUsersGeocaches",
      "outputs": [
        {
          "internalType": "uint256[]",
          "name": "",
          "type": "uint256[]"
        }
      ],
      "stateMutability": "view",
      "type": "function"
    },
    {
      "inputs": [
        {
          "internalType": "uint256",
          "name": "",
          "type": "uint256"
        },
        {
          "internalType": "address",
          "name": "",
          "type": "address"
        }
      ],
      "name": "hasMintedTokenId",
      "outputs": [
        {
          "internalType": "bool",
          "name": "",
          "type": "bool"
        }
      ],
      "stateMutability": "view",
      "type": "function"
    },
    {
      "inputs": [
        {
          "internalType": "address",
          "name": "admin",
          "type": "address"
        }
      ],
      "name": "isAdmin",
      "outputs": [
        {
          "internalType": "bool",
          "name": "",
          "type": "bool"
        }
      ],
      "stateMutability": "view",
      "type": "function"
    },
    {
      "inputs": [
        {
          "internalType": "uint256",
          "name": "_geocacheId",
          "type": "uint256"
        },
        {
          "internalType": "address",
          "name": "_user",
          "type": "address"
        }
      ],
      "name": "mintItemInGeocache",
      "outputs": [],
      "stateMutability": "nonpayable",
      "type": "function"
    },
    {
      "inputs": [
        {
          "internalType": "uint256",
          "name": "_numItems",
          "type": "uint256"
        },
        {
          "internalType": "string",
          "name": "_tokenURI",
          "type": "string"
        },
        {
          "internalType": "string",
          "name": "_dateCreated",
          "type": "string"
        },
        {
          "internalType": "string[]",
          "name": "_itemGeolocations",
          "type": "string[]"
        },
        {
          "internalType": "string",
          "name": "_epicenterLat",
          "type": "string"
        },
        {
          "internalType": "string",
          "name": "_epicenterLong",
          "type": "string"
        },
        {
          "internalType": "uint256",
          "name": "_radius",
          "type": "uint256"
        },
        {
          "internalType": "string",
          "name": "_name",
          "type": "string"
        },
        {
          "internalType": "string",
          "name": "_originStory",
          "type": "string"
        }
      ],
      "name": "newGeocache",
      "outputs": [],
      "stateMutability": "nonpayable",
      "type": "function"
    },
    {
      "inputs": [],
      "name": "numActiveGeocaches",
      "outputs": [
        {
          "internalType": "uint256",
          "name": "",
          "type": "uint256"
        }
      ],
      "stateMutability": "view",
      "type": "function"
    },
    {
      "inputs": [],
      "name": "numGeocaches",
      "outputs": [
        {
          "internalType": "uint256",
          "name": "",
          "type": "uint256"
        }
      ],
      "stateMutability": "view",
      "type": "function"
    },
    {
      "inputs": [],
      "name": "owner",
      "outputs": [
        {
          "internalType": "address",
          "name": "",
          "type": "address"
        }
      ],
      "stateMutability": "view",
      "type": "function"
    },
    {
      "inputs": [],
      "name": "renounceOwnership",
      "outputs": [],
      "stateMutability": "nonpayable",
      "type": "function"
    },
    {
      "inputs": [
        {
          "internalType": "address",
          "name": "admin",
          "type": "address"
        }
      ],
      "name": "revokeAdmin",
      "outputs": [],
      "stateMutability": "nonpayable",
      "type": "function"
    },
    {
      "inputs": [
        {
          "internalType": "bytes4",
          "name": "interfaceId",
          "type": "bytes4"
        }
      ],
      "name": "supportsInterface",
      "outputs": [
        {
          "internalType": "bool",
          "name": "",
          "type": "bool"
        }
      ],
      "stateMutability": "view",
      "type": "function"
    },
    {
      "inputs": [
        {
          "internalType": "uint256",
          "name": "",
          "type": "uint256"
        }
      ],
      "name": "tokenIdToGeocache",
      "outputs": [
        {
          "internalType": "address",
          "name": "creator",
          "type": "address"
        },
        {
          "internalType": "string",
          "name": "tokenURI",
          "type": "string"
        },
        {
          "internalType": "string",
          "name": "dateCreated",
          "type": "string"
        },
        {
          "internalType": "uint256",
          "name": "numItems",
          "type": "uint256"
        },
        {
          "internalType": "bool",
          "name": "isActive",
          "type": "bool"
        },
        {
          "internalType": "string",
          "name": "epicenterLat",
          "type": "string"
        },
        {
          "internalType": "string",
          "name": "epicenterLong",
          "type": "string"
        },
        {
          "internalType": "string",
          "name": "name",
          "type": "string"
        },
        {
          "internalType": "uint256",
          "name": "radius",
          "type": "uint256"
        },
        {
          "internalType": "string",
          "name": "originStory",
          "type": "string"
        }
      ],
      "stateMutability": "view",
      "type": "function"
    },
    {
      "inputs": [
        {
          "internalType": "address",
          "name": "_creatorContract",
          "type": "address"
        },
        {
          "internalType": "uint256",
          "name": "_tokenId",
          "type": "uint256"
        }
      ],
      "name": "tokenURI",
      "outputs": [
        {
          "internalType": "string",
          "name": "",
          "type": "string"
        }
      ],
      "stateMutability": "view",
      "type": "function"
    },
    {
      "inputs": [
        {
          "internalType": "address",
          "name": "newOwner",
          "type": "address"
        }
      ],
      "name": "transferOwnership",
      "outputs": [],
      "stateMutability": "nonpayable",
      "type": "function"
    },
    {
      "inputs": [
        {
          "internalType": "uint256",
          "name": "_tokenId",
          "type": "uint256"
        },
        {
          "internalType": "string",
          "name": "_newTokenURI",
          "type": "string"
        }
      ],
      "name": "updateGeocacheTokenURI",
      "outputs": [],
      "stateMutability": "nonpayable",
      "type": "function"
    },
    {
      "inputs": [
        {
          "internalType": "uint256",
          "name": "_tokenId",
          "type": "uint256"
        }
      ],
      "name": "uri",
      "outputs": [
        {
          "internalType": "string",
          "name": "",
          "type": "string"
        }
      ],
      "stateMutability": "view",
      "type": "function"
    },
    {
      "inputs": [
        {
          "internalType": "address",
          "name": "",
          "type": "address"
        },
        {
          "internalType": "uint256",
          "name": "",
          "type": "uint256"
        }
      ],
      "name": "userToGeocache",
      "outputs": [
        {
          "internalType": "uint256",
          "name": "",
          "type": "uint256"
        }
      ],
      "stateMutability": "view",
      "type": "function"
    }
  ],
  "bytecode": "0x60a060405260006003553480156200001657600080fd5b50604051620025cf380380620025cf8339810160408190526200003991620000a6565b620000443362000056565b6001600160a01b0316608052620000d8565b600080546001600160a01b038381166001600160a01b0319831681178455604051919092169283917f8be0079c531659141344cd1fd0a4f28419497f9722a3daafe3b4186f6b6457e09190a35050565b600060208284031215620000b957600080fd5b81516001600160a01b0381168114620000d157600080fd5b9392505050565b6080516124cd62000102600039600081816101dc01528181610a3d01526119b401526124cd6000f3fe608060405234801561001057600080fd5b506004361061014d5760003560e01c80637f49cac0116100c3578063c1361b671161007c578063c1361b6714610328578063cb948fc514610331578063e9dc63751461033a578063efa3c8b41461034d578063f2fde38b1461036d578063fa5ab3791461038057600080fd5b80637f49cac01461028757806380b501b3146102b557806380e604e8146102c85780638da5cb5b146102db578063996f12de146102ec5780639e6e7a0b1461031557600080fd5b80633dae35ce116101155780633dae35ce146101d75780635620749f146102165780636325ce2f146102445780636d73e66914610257578063715018a61461026a5780637a50fc4a1461027257600080fd5b806301ffc9a7146101525780630e89341c1461017a57806324d7806c1461019a5780632d345670146101ad57806331ae450b146101c2575b600080fd5b610165610160366004611cd7565b610393565b60405190151581526020015b60405180910390f35b61018d610188366004611d01565b6103f4565b6040516101719190611d67565b6101656101a8366004611d96565b610499565b6101c06101bb366004611d96565b6104d2565b005b6101ca610530565b6040516101719190611df5565b6101fe7f000000000000000000000000000000000000000000000000000000000000000081565b6040516001600160a01b039091168152602001610171565b610236610224366004611d01565b60066020526000908152604090205481565b604051908152602001610171565b6101c0610252366004611ebd565b6105de565b6101c0610265366004611d96565b610631565b6101c0610689565b61027a61069d565b6040516101719190611f33565b610165610295366004611f46565b600760209081526000928352604080842090915290825290205460ff1681565b6101c06102c3366004612024565b610757565b6102366102d6366004612152565b610b09565b6000546001600160a01b03166101fe565b6102ff6102fa366004611d01565b610b3a565b6040516101719a9998979695949392919061217c565b61027a610323366004611d96565b610ec9565b61023660045481565b61023660035481565b61018d610348366004612152565b610f34565b61036061035b366004611d01565b610fda565b6040516101719190612281565b6101c061037b366004611d96565b6110c9565b6101c061038e366004611f46565b611144565b60006001600160e01b0319821663e9dc637560e01b14806103c457506001600160e01b031982166354c1bcd960e01b145b806103df57506001600160e01b031982166301ffc9a760e01b145b806103ee57506103ee82611783565b92915050565b600081815260056020526040902060010180546060919061041490612294565b80601f016020809104026020016040519081016040528092919081815260200182805461044090612294565b801561048d5780601f106104625761010080835404028352916020019161048d565b820191906000526020600020905b81548152906001019060200180831161047057829003601f168201915b50505050509050919050565b6000816001600160a01b03166104b76000546001600160a01b031690565b6001600160a01b031614806103ee57506103ee6001836117b8565b6104da6117dd565b6104e56001826117b8565b1561052d5760405133906001600160a01b038316907f7c0c3c84c67c85fcac635147348bfe374c24a1a93d0366d1cfe9d8853cbf89d590600090a361052b600182611837565b505b50565b606061053c600161184c565b6001600160401b0381111561055357610553611e08565b60405190808252806020026020018201604052801561057c578160200160208202803683370190505b50905060005b61058c600161184c565b8110156105da5761059e600182611856565b8282815181106105b0576105b06122ce565b6001600160a01b0390921660209283029190910190910152806105d2816122fa565b915050610582565b5090565b600082815260056020526040902080546001600160a01b03163314610616576040516393687c0b60e01b815260040160405180910390fd5b815161062b9060018301906020850190611b92565b50505050565b6106396117dd565b6106446001826117b8565b61052d5760405133906001600160a01b038316907f7e1a1a08d52e4ba0e21554733d66165fd5151f99460116223d9e3a608eec5cb190600090a361052b600182611862565b6106916117dd565b61069b6000611877565b565b606060006004546001600160401b038111156106bb576106bb611e08565b6040519080825280602002602001820160405280156106e4578160200160208202803683370190505b5090506000805b60035481101561074f576000818152600560205260409020600481015460ff161561073c5781848481518110610723576107236122ce565b602090810291909101015282610738816122fa565b9350505b5080610747816122fa565b9150506106eb565b509092915050565b600360008154610766906122fa565b909155506004805460009061077a906122fa565b90915550604080516101608101825233815260208082018b81528284018b9052606083018d905260016080840181905260a084018a905260c0840189905260e084018b905261010084018790526101208401889052610140840186905260035460009081526005845294909420835181546001600160a01b0319166001600160a01b03909116178155905180519394919361081d93928501929190910190611b92565b5060408201518051610839916002840191602090910190611b92565b5060608201516003820155608082015160048201805460ff191691151591909117905560a08201518051610877916005840191602090910190611b92565b5060c08201518051610893916006840191602090910190611b92565b5060e082015180516108af916007840191602090910190611c12565b5061010082015180516108cc916008840191602090910190611b92565b50610120820151600982015561014082015180516108f491600a840191602090910190611b92565b505033600081815260086020908152604080832060038054825460018082018555938752858720015554845260078352818420948452938252808320805460ff19168517905580518481528082019091529193509091908281019080368337019050509050338160008151811061096d5761096d6122ce565b6001600160a01b0392909216602092830291909101909101526040805160018082528183019092526000918160200160208202803683370190505090506001816000815181106109bf576109bf6122ce565b6020908102919091010152604080516001808252818301909252600091816020015b60608152602001906001900390816109e15790505090506040518060200160405280600081525081600081518110610a1b57610a1b6122ce565b6020908102919091010152604051634637423960e11b81526001600160a01b037f00000000000000000000000000000000000000000000000000000000000000001690638c6e847290610a7690869086908690600401612313565b6000604051808303816000875af1158015610a95573d6000803e3d6000fd5b505050506040513d6000823e601f3d908101601f19168201604052610abd9190810190612356565b507f6eb6ad71f0a3b9f2fa6652a096ca4bd0851eb41211391b7aab2e8564794aac2a3386600354604051610af3939291906123e6565b60405180910390a1505050505050505050505050565b60086020528160005260406000208181548110610b2557600080fd5b90600052602060002001600091509150505481565b600560205260009081526040902080546001820180546001600160a01b039092169291610b6690612294565b80601f0160208091040260200160405190810160405280929190818152602001828054610b9290612294565b8015610bdf5780601f10610bb457610100808354040283529160200191610bdf565b820191906000526020600020905b815481529060010190602001808311610bc257829003601f168201915b505050505090806002018054610bf490612294565b80601f0160208091040260200160405190810160405280929190818152602001828054610c2090612294565b8015610c6d5780601f10610c4257610100808354040283529160200191610c6d565b820191906000526020600020905b815481529060010190602001808311610c5057829003601f168201915b50505050600383015460048401546005850180549495929460ff909216935090610c9690612294565b80601f0160208091040260200160405190810160405280929190818152602001828054610cc290612294565b8015610d0f5780601f10610ce457610100808354040283529160200191610d0f565b820191906000526020600020905b815481529060010190602001808311610cf257829003601f168201915b505050505090806006018054610d2490612294565b80601f0160208091040260200160405190810160405280929190818152602001828054610d5090612294565b8015610d9d5780601f10610d7257610100808354040283529160200191610d9d565b820191906000526020600020905b815481529060010190602001808311610d8057829003601f168201915b505050505090806008018054610db290612294565b80601f0160208091040260200160405190810160405280929190818152602001828054610dde90612294565b8015610e2b5780601f10610e0057610100808354040283529160200191610e2b565b820191906000526020600020905b815481529060010190602001808311610e0e57829003601f168201915b50505050509080600901549080600a018054610e4690612294565b80601f0160208091040260200160405190810160405280929190818152602001828054610e7290612294565b8015610ebf5780601f10610e9457610100808354040283529160200191610ebf565b820191906000526020600020905b815481529060010190602001808311610ea257829003601f168201915b505050505090508a565b6001600160a01b03811660009081526008602090815260409182902080548351818402810184019094528084526060939283018282801561048d57602002820191906000526020600020905b815481526020019060010190808311610f155750505050509050919050565b6000818152600560205260409020600101805460609190610f5490612294565b80601f0160208091040260200160405190810160405280929190818152602001828054610f8090612294565b8015610fcd5780601f10610fa257610100808354040283529160200191610fcd565b820191906000526020600020905b815481529060010190602001808311610fb057829003601f168201915b5050505050905092915050565b606060056000838152602001908152602001600020600701805480602002602001604051908101604052809291908181526020016000905b828210156110be57838290600052602060002001805461103190612294565b80601f016020809104026020016040519081016040528092919081815260200182805461105d90612294565b80156110aa5780601f1061107f576101008083540402835291602001916110aa565b820191906000526020600020905b81548152906001019060200180831161108d57829003601f168201915b505050505081526020019060010190611012565b505050509050919050565b6110d16117dd565b6001600160a01b03811661113b5760405162461bcd60e51b815260206004820152602660248201527f4f776e61626c653a206e6577206f776e657220697320746865207a65726f206160448201526564647265737360d01b60648201526084015b60405180910390fd5b61052d81611877565b61114c6117dd565b600354821061116e57604051634a1850bf60e11b815260040160405180910390fd5b60008281526007602090815260408083206001600160a01b038516845290915290205460ff16156111b257604051634641bb4760e01b815260040160405180910390fd5b60008281526005602090815260408083208151610160810190925280546001600160a01b0316825260018101805492939192918401916111f190612294565b80601f016020809104026020016040519081016040528092919081815260200182805461121d90612294565b801561126a5780601f1061123f5761010080835404028352916020019161126a565b820191906000526020600020905b81548152906001019060200180831161124d57829003601f168201915b5050505050815260200160028201805461128390612294565b80601f01602080910402602001604051908101604052809291908181526020018280546112af90612294565b80156112fc5780601f106112d1576101008083540402835291602001916112fc565b820191906000526020600020905b8154815290600101906020018083116112df57829003601f168201915b505050918352505060038201546020820152600482015460ff161515604082015260058201805460609092019161133290612294565b80601f016020809104026020016040519081016040528092919081815260200182805461135e90612294565b80156113ab5780601f10611380576101008083540402835291602001916113ab565b820191906000526020600020905b81548152906001019060200180831161138e57829003601f168201915b505050505081526020016006820180546113c490612294565b80601f01602080910402602001604051908101604052809291908181526020018280546113f090612294565b801561143d5780601f106114125761010080835404028352916020019161143d565b820191906000526020600020905b81548152906001019060200180831161142057829003601f168201915b5050505050815260200160078201805480602002602001604051908101604052809291908181526020016000905b8282101561151757838290600052602060002001805461148a90612294565b80601f01602080910402602001604051908101604052809291908181526020018280546114b690612294565b80156115035780601f106114d857610100808354040283529160200191611503565b820191906000526020600020905b8154815290600101906020018083116114e657829003601f168201915b50505050508152602001906001019061146b565b50505050815260200160088201805461152f90612294565b80601f016020809104026020016040519081016040528092919081815260200182805461155b90612294565b80156115a85780601f1061157d576101008083540402835291602001916115a8565b820191906000526020600020905b81548152906001019060200180831161158b57829003601f168201915b5050505050815260200160098201548152602001600a820180546115cb90612294565b80601f01602080910402602001604051908101604052809291908181526020018280546115f790612294565b80156116445780601f1061161957610100808354040283529160200191611644565b820191906000526020600020905b81548152906001019060200180831161162757829003601f168201915b505050505081525050905080608001516116715760405163d7c0312f60e01b815260040160405180910390fd5b600083815260066020526040812080549161168b836122fa565b909155505060008381526007602090815260408083206001600160a01b03861684528252808320805460ff191660011790556060840151868452600690925290912054036117015760008381526005602052604081206004908101805460ff1916905580549091906116fc9061241a565b909155505b61170b83836118c7565b6001600160a01b0382166000818152600860209081526040808320805460018101825590845282842001879055868352600682529182902054825193845290830186905282820152517f7ed2deb7015f264677924005fd808fb4d654bcd7a3ba0a12ede865d506f962df9181900360600190a1505050565b60006001600160e01b03198216632a9f3abf60e11b14806103ee57506301ffc9a760e01b6001600160e01b03198316146103ee565b6001600160a01b038116600090815260018301602052604081205415155b9392505050565b6000546001600160a01b0316331461069b5760405162461bcd60e51b815260206004820181905260248201527f4f776e61626c653a2063616c6c6572206973206e6f7420746865206f776e65726044820152606401611132565b60006117d6836001600160a01b038416611a26565b60006103ee825490565b60006117d68383611b19565b60006117d6836001600160a01b038416611b43565b600080546001600160a01b038381166001600160a01b0319831681178455604051919092169283917f8be0079c531659141344cd1fd0a4f28419497f9722a3daafe3b4186f6b6457e09190a35050565b6040805160018082528183019092526000916020808301908036833701905050905081816000815181106118fd576118fd6122ce565b6001600160a01b039290921660209283029190910190910152604080516001808252818301909252600091816020016020820280368337019050509050838160008151811061194e5761194e6122ce565b6020908102919091010152604080516001808252818301909252600091816020016020820280368337019050509050600181600081518110611992576119926122ce565b60209081029190910101526040516339b2213760e21b81526001600160a01b037f0000000000000000000000000000000000000000000000000000000000000000169063e6c884dc906119ed90869086908690600401612431565b600060405180830381600087803b158015611a0757600080fd5b505af1158015611a1b573d6000803e3d6000fd5b505050505050505050565b60008181526001830160205260408120548015611b0f576000611a4a60018361246a565b8554909150600090611a5e9060019061246a565b9050818114611ac3576000866000018281548110611a7e57611a7e6122ce565b9060005260206000200154905080876000018481548110611aa157611aa16122ce565b6000918252602080832090910192909255918252600188019052604090208390555b8554869080611ad457611ad4612481565b6001900381819060005260206000200160009055905585600101600086815260200190815260200160002060009055600193505050506103ee565b60009150506103ee565b6000826000018281548110611b3057611b306122ce565b9060005260206000200154905092915050565b6000818152600183016020526040812054611b8a575081546001818101845560008481526020808220909301849055845484825282860190935260409020919091556103ee565b5060006103ee565b828054611b9e90612294565b90600052602060002090601f016020900481019282611bc05760008555611c06565b82601f10611bd957805160ff1916838001178555611c06565b82800160010185558215611c06579182015b82811115611c06578251825591602001919060010190611beb565b506105da929150611c6b565b828054828255906000526020600020908101928215611c5f579160200282015b82811115611c5f5782518051611c4f918491602090910190611b92565b5091602001919060010190611c32565b506105da929150611c80565b5b808211156105da5760008155600101611c6c565b808211156105da576000611c948282611c9d565b50600101611c80565b508054611ca990612294565b6000825580601f10611cb9575050565b601f01602090049060005260206000209081019061052d9190611c6b565b600060208284031215611ce957600080fd5b81356001600160e01b0319811681146117d657600080fd5b600060208284031215611d1357600080fd5b5035919050565b6000815180845260005b81811015611d4057602081850181015186830182015201611d24565b81811115611d52576000602083870101525b50601f01601f19169290920160200192915050565b6020815260006117d66020830184611d1a565b80356001600160a01b0381168114611d9157600080fd5b919050565b600060208284031215611da857600080fd5b6117d682611d7a565b600081518084526020808501945080840160005b83811015611dea5781516001600160a01b031687529582019590820190600101611dc5565b509495945050505050565b6020815260006117d66020830184611db1565b634e487b7160e01b600052604160045260246000fd5b604051601f8201601f191681016001600160401b0381118282101715611e4657611e46611e08565b604052919050565b600082601f830112611e5f57600080fd5b81356001600160401b03811115611e7857611e78611e08565b611e8b601f8201601f1916602001611e1e565b818152846020838601011115611ea057600080fd5b816020850160208301376000918101602001919091529392505050565b60008060408385031215611ed057600080fd5b8235915060208301356001600160401b03811115611eed57600080fd5b611ef985828601611e4e565b9150509250929050565b600081518084526020808501945080840160005b83811015611dea57815187529582019590820190600101611f17565b6020815260006117d66020830184611f03565b60008060408385031215611f5957600080fd5b82359150611f6960208401611d7a565b90509250929050565b60006001600160401b03821115611f8b57611f8b611e08565b5060051b60200190565b600082601f830112611fa657600080fd5b81356020611fbb611fb683611f72565b611e1e565b82815260059290921b84018101918181019086841115611fda57600080fd5b8286015b848110156120195780356001600160401b03811115611ffd5760008081fd5b61200b8986838b0101611e4e565b845250918301918301611fde565b509695505050505050565b60008060008060008060008060006101208a8c03121561204357600080fd5b8935985060208a01356001600160401b038082111561206157600080fd5b61206d8d838e01611e4e565b995060408c013591508082111561208357600080fd5b61208f8d838e01611e4e565b985060608c01359150808211156120a557600080fd5b6120b18d838e01611f95565b975060808c01359150808211156120c757600080fd5b6120d38d838e01611e4e565b965060a08c01359150808211156120e957600080fd5b6120f58d838e01611e4e565b955060c08c0135945060e08c013591508082111561211257600080fd5b61211e8d838e01611e4e565b93506101008c013591508082111561213557600080fd5b506121428c828d01611e4e565b9150509295985092959850929598565b6000806040838503121561216557600080fd5b61216e83611d7a565b946020939093013593505050565b6001600160a01b038b168152610140602082018190526000906121a18382018d611d1a565b905082810360408401526121b5818c611d1a565b9050896060840152881515608084015282810360a08401526121d78189611d1a565b905082810360c08401526121eb8188611d1a565b905082810360e08401526121ff8187611d1a565b90508461010084015282810361012084015261221b8185611d1a565b9d9c50505050505050505050505050565b600081518084526020808501808196508360051b8101915082860160005b85811015612274578284038952612262848351611d1a565b9885019893509084019060010161224a565b5091979650505050505050565b6020815260006117d6602083018461222c565b600181811c908216806122a857607f821691505b6020821081036122c857634e487b7160e01b600052602260045260246000fd5b50919050565b634e487b7160e01b600052603260045260246000fd5b634e487b7160e01b600052601160045260246000fd5b60006001820161230c5761230c6122e4565b5060010190565b6060815260006123266060830186611db1565b82810360208401526123388186611f03565b9050828103604084015261234c818561222c565b9695505050505050565b6000602080838503121561236957600080fd5b82516001600160401b0381111561237f57600080fd5b8301601f8101851361239057600080fd5b805161239e611fb682611f72565b81815260059190911b820183019083810190878311156123bd57600080fd5b928401925b828410156123db578351825292840192908401906123c2565b979650505050505050565b6001600160a01b038416815260606020820181905260009061240a90830185611d1a565b9050826040830152949350505050565b600081612429576124296122e4565b506000190190565b6060815260006124446060830186611db1565b82810360208401526124568186611f03565b9050828103604084015261234c8185611f03565b60008282101561247c5761247c6122e4565b500390565b634e487b7160e01b600052603160045260246000fdfea2646970667358221220049830b6e34715743b5e0a56ad65f6d7d5c6cc188d00e3576126930ce9236b3364736f6c634300080d0033",
  "linkReferences": {},
  "deployedLinkReferences": {}
}