{
  "_format": "hh-sol-artifact-1",
  "contractName": "Geocache",
  "sourceName": "contracts/Geocache.sol",
  "abi": [
    {
      "inputs": [
        {
          "internalType": "address",
          "name": "_creatorContract",
          "type": "address"
        }
      ],
      "stateMutability": "nonpayable",
      "type": "constructor"
    },
    {
      "inputs": [],
      "name": "NonExistentToken",
      "type": "error"
    },
    {
      "inputs": [],
      "name": "NotActiveGeocache",
      "type": "error"
    },
    {
      "inputs": [],
      "name": "NotCreator",
      "type": "error"
    },
    {
      "inputs": [],
      "name": "UserAlreadyFound",
      "type": "error"
    },
    {
      "anonymous": false,
      "inputs": [
        {
          "indexed": true,
          "internalType": "address",
          "name": "account",
          "type": "address"
        },
        {
          "indexed": true,
          "internalType": "address",
          "name": "sender",
          "type": "address"
        }
      ],
      "name": "AdminApproved",
      "type": "event"
    },
    {
      "anonymous": false,
      "inputs": [
        {
          "indexed": true,
          "internalType": "address",
          "name": "account",
          "type": "address"
        },
        {
          "indexed": true,
          "internalType": "address",
          "name": "sender",
          "type": "address"
        }
      ],
      "name": "AdminRevoked",
      "type": "event"
    },
    {
      "anonymous": false,
      "inputs": [
        {
          "indexed": true,
          "internalType": "address",
          "name": "previousOwner",
          "type": "address"
        },
        {
          "indexed": true,
          "internalType": "address",
          "name": "newOwner",
          "type": "address"
        }
      ],
      "name": "OwnershipTransferred",
      "type": "event"
    },
    {
      "inputs": [
        {
          "internalType": "address",
          "name": "admin",
          "type": "address"
        }
      ],
      "name": "approveAdmin",
      "outputs": [],
      "stateMutability": "nonpayable",
      "type": "function"
    },
    {
      "inputs": [],
      "name": "creatorContract",
      "outputs": [
        {
          "internalType": "address",
          "name": "",
          "type": "address"
        }
      ],
      "stateMutability": "view",
      "type": "function"
    },
    {
      "inputs": [
        {
          "internalType": "uint256",
          "name": "",
          "type": "uint256"
        }
      ],
      "name": "geocacheToNumFound",
      "outputs": [
        {
          "internalType": "uint256",
          "name": "",
          "type": "uint256"
        }
      ],
      "stateMutability": "view",
      "type": "function"
    },
    {
      "inputs": [],
      "name": "getAdmins",
      "outputs": [
        {
          "internalType": "address[]",
          "name": "admins",
          "type": "address[]"
        }
      ],
      "stateMutability": "view",
      "type": "function"
    },
    {
      "inputs": [],
      "name": "getAllGeocaches",
      "outputs": [
        {
          "components": [
            {
              "internalType": "address",
              "name": "creator",
              "type": "address"
            },
            {
              "internalType": "string",
              "name": "tokenURI",
              "type": "string"
            },
            {
              "internalType": "string",
              "name": "dateCreated",
              "type": "string"
            },
            {
              "internalType": "uint256",
              "name": "numItems",
              "type": "uint256"
            },
            {
              "internalType": "bool",
              "name": "isActive",
              "type": "bool"
            },
            {
              "internalType": "uint256",
              "name": "epicenterXCoord",
              "type": "uint256"
            },
            {
              "internalType": "uint256",
              "name": "epicenterYCoord",
              "type": "uint256"
            },
            {
              "internalType": "string[]",
              "name": "itemGeolocations",
              "type": "string[]"
            },
            {
              "internalType": "string",
              "name": "name",
              "type": "string"
            },
            {
              "internalType": "uint256",
              "name": "radius",
              "type": "uint256"
            }
          ],
          "internalType": "struct Geocache.GeocacheInstance[]",
          "name": "",
          "type": "tuple[]"
        }
      ],
      "stateMutability": "view",
      "type": "function"
    },
    {
      "inputs": [
        {
          "internalType": "uint256",
          "name": "",
          "type": "uint256"
        },
        {
          "internalType": "address",
          "name": "",
          "type": "address"
        }
      ],
      "name": "hasMintedTokenId",
      "outputs": [
        {
          "internalType": "bool",
          "name": "",
          "type": "bool"
        }
      ],
      "stateMutability": "view",
      "type": "function"
    },
    {
      "inputs": [
        {
          "internalType": "address",
          "name": "admin",
          "type": "address"
        }
      ],
      "name": "isAdmin",
      "outputs": [
        {
          "internalType": "bool",
          "name": "",
          "type": "bool"
        }
      ],
      "stateMutability": "view",
      "type": "function"
    },
    {
      "inputs": [
        {
          "internalType": "uint256",
          "name": "_geocacheId",
          "type": "uint256"
        },
        {
          "internalType": "address",
          "name": "_user",
          "type": "address"
        }
      ],
      "name": "mintItemInGeocache",
      "outputs": [],
      "stateMutability": "nonpayable",
      "type": "function"
    },
    {
      "inputs": [
        {
          "internalType": "uint256",
          "name": "_numItems",
          "type": "uint256"
        },
        {
          "internalType": "string",
          "name": "_tokenURI",
          "type": "string"
        },
        {
          "internalType": "string",
          "name": "_dateCreated",
          "type": "string"
        },
        {
          "internalType": "string[]",
          "name": "_itemGeolocations",
          "type": "string[]"
        },
        {
          "internalType": "uint256",
          "name": "_xCoord",
          "type": "uint256"
        },
        {
          "internalType": "uint256",
          "name": "_yCoord",
          "type": "uint256"
        },
        {
          "internalType": "uint256",
          "name": "_radius",
          "type": "uint256"
        },
        {
          "internalType": "string",
          "name": "_name",
          "type": "string"
        }
      ],
      "name": "newGeocache",
      "outputs": [],
      "stateMutability": "nonpayable",
      "type": "function"
    },
    {
      "inputs": [],
      "name": "numGeocaches",
      "outputs": [
        {
          "internalType": "uint256",
          "name": "",
          "type": "uint256"
        }
      ],
      "stateMutability": "view",
      "type": "function"
    },
    {
      "inputs": [],
      "name": "owner",
      "outputs": [
        {
          "internalType": "address",
          "name": "",
          "type": "address"
        }
      ],
      "stateMutability": "view",
      "type": "function"
    },
    {
      "inputs": [],
      "name": "renounceOwnership",
      "outputs": [],
      "stateMutability": "nonpayable",
      "type": "function"
    },
    {
      "inputs": [
        {
          "internalType": "address",
          "name": "admin",
          "type": "address"
        }
      ],
      "name": "revokeAdmin",
      "outputs": [],
      "stateMutability": "nonpayable",
      "type": "function"
    },
    {
      "inputs": [
        {
          "internalType": "bytes4",
          "name": "interfaceId",
          "type": "bytes4"
        }
      ],
      "name": "supportsInterface",
      "outputs": [
        {
          "internalType": "bool",
          "name": "",
          "type": "bool"
        }
      ],
      "stateMutability": "view",
      "type": "function"
    },
    {
      "inputs": [
        {
          "internalType": "uint256",
          "name": "",
          "type": "uint256"
        }
      ],
      "name": "tokenIdToGeocache",
      "outputs": [
        {
          "internalType": "address",
          "name": "creator",
          "type": "address"
        },
        {
          "internalType": "string",
          "name": "tokenURI",
          "type": "string"
        },
        {
          "internalType": "string",
          "name": "dateCreated",
          "type": "string"
        },
        {
          "internalType": "uint256",
          "name": "numItems",
          "type": "uint256"
        },
        {
          "internalType": "bool",
          "name": "isActive",
          "type": "bool"
        },
        {
          "internalType": "uint256",
          "name": "epicenterXCoord",
          "type": "uint256"
        },
        {
          "internalType": "uint256",
          "name": "epicenterYCoord",
          "type": "uint256"
        },
        {
          "internalType": "string",
          "name": "name",
          "type": "string"
        },
        {
          "internalType": "uint256",
          "name": "radius",
          "type": "uint256"
        }
      ],
      "stateMutability": "view",
      "type": "function"
    },
    {
      "inputs": [
        {
          "internalType": "address",
          "name": "_creatorContract",
          "type": "address"
        },
        {
          "internalType": "uint256",
          "name": "_tokenId",
          "type": "uint256"
        }
      ],
      "name": "tokenURI",
      "outputs": [
        {
          "internalType": "string",
          "name": "",
          "type": "string"
        }
      ],
      "stateMutability": "view",
      "type": "function"
    },
    {
      "inputs": [
        {
          "internalType": "address",
          "name": "newOwner",
          "type": "address"
        }
      ],
      "name": "transferOwnership",
      "outputs": [],
      "stateMutability": "nonpayable",
      "type": "function"
    },
    {
      "inputs": [
        {
          "internalType": "uint256",
          "name": "_tokenId",
          "type": "uint256"
        },
        {
          "internalType": "string",
          "name": "_newTokenURI",
          "type": "string"
        }
      ],
      "name": "updateGeocacheTokenURI",
      "outputs": [],
      "stateMutability": "nonpayable",
      "type": "function"
    }
  ],
  "bytecode": "0x60a06040523480156200001157600080fd5b5060405162002288380380620022888339810160408190526200003491620000a1565b6200003f3362000051565b6001600160a01b0316608052620000d3565b600080546001600160a01b038381166001600160a01b0319831681178455604051919092169283917f8be0079c531659141344cd1fd0a4f28419497f9722a3daafe3b4186f6b6457e09190a35050565b600060208284031215620000b457600080fd5b81516001600160a01b0381168114620000cc57600080fd5b9392505050565b608051612184620001046000396000818161018501528181610db001528181610e42015261163b01526121846000f3fe608060405234801561001057600080fd5b50600436106101165760003560e01c80637f49cac0116100a2578063cb948fc511610071578063cb948fc514610297578063d7aaa9b1146102a0578063e9dc6375146102b3578063f2fde38b146102d3578063fa5ab379146102e657600080fd5b80637f49cac01461021b57806383f4e0a8146102495780638da5cb5b1461025e578063996f12de1461026f57600080fd5b80633dae35ce116100e95780633dae35ce146101805780635620749f146101bf5780636325ce2f146101ed5780636d73e66914610200578063715018a61461021357600080fd5b806301ffc9a71461011b57806324d7806c146101435780632d3456701461015657806331ae450b1461016b575b600080fd5b61012e61012936600461197f565b6102f9565b60405190151581526020015b60405180910390f35b61012e6101513660046119c5565b610375565b6101696101643660046119c5565b6103ae565b005b61017361040c565b60405161013a9190611a24565b6101a77f000000000000000000000000000000000000000000000000000000000000000081565b6040516001600160a01b03909116815260200161013a565b6101df6101cd366004611a37565b60056020526000908152604090205481565b60405190815260200161013a565b6101696101fb366004611b05565b6104ba565b61016961020e3660046119c5565b61050d565b610169610565565b61012e610229366004611b4b565b600660209081526000928352604080842090915290825290205460ff1681565b610251610579565b60405161013a9190611c19565b6000546001600160a01b03166101a7565b61028261027d366004611a37565b610974565b60405161013a99989796959493929190611d2b565b6101df60035481565b6101696102ae366004611e5c565b610b66565b6102c66102c1366004611f2f565b610e3e565b60405161013a9190611f59565b6101696102e13660046119c5565b610f20565b6101696102f4366004611b4b565b610f9b565b60006001600160e01b0319821663e9dc637560e01b148061032a57506001600160e01b031982166354c1bcd960e01b145b8061034557506001600160e01b03198216636cdb3d1360e11b145b8061036057506001600160e01b031982166301ffc9a760e01b145b8061036f575061036f826113c5565b92915050565b6000816001600160a01b03166103936000546001600160a01b031690565b6001600160a01b0316148061036f575061036f6001836113fa565b6103b661141f565b6103c16001826113fa565b156104095760405133906001600160a01b038316907f7c0c3c84c67c85fcac635147348bfe374c24a1a93d0366d1cfe9d8853cbf89d590600090a3610407600182611479565b505b50565b6060610418600161148e565b6001600160401b0381111561042f5761042f611a50565b604051908082528060200260200182016040528015610458578160200160208202803683370190505b50905060005b610468600161148e565b8110156104b65761047a600182611498565b82828151811061048c5761048c611f6c565b6001600160a01b0390921660209283029190910190910152806104ae81611f98565b91505061045e565b5090565b600082815260046020526040902080546001600160a01b031633146104f2576040516393687c0b60e01b815260040160405180910390fd5b8151610507906001830190602085019061183a565b50505050565b61051561141f565b6105206001826113fa565b6104095760405133906001600160a01b038316907f7e1a1a08d52e4ba0e21554733d66165fd5151f99460116223d9e3a608eec5cb190600090a36104076001826114a4565b61056d61141f565b61057760006114b9565b565b606060006003546001600160401b0381111561059757610597611a50565b60405190808252806020026020018201604052801561062957816020015b61061660405180610140016040528060006001600160a01b0316815260200160608152602001606081526020016000815260200160001515815260200160008152602001600081526020016060815260200160608152602001600081525090565b8152602001906001900390816105b55790505b50905060005b60035481101561096e576000818152600460209081526040918290208251610140810190935280546001600160a01b031683526001810180549193928492908401919061067b90611fb1565b80601f01602080910402602001604051908101604052809291908181526020018280546106a790611fb1565b80156106f45780601f106106c9576101008083540402835291602001916106f4565b820191906000526020600020905b8154815290600101906020018083116106d757829003601f168201915b5050505050815260200160028201805461070d90611fb1565b80601f016020809104026020016040519081016040528092919081815260200182805461073990611fb1565b80156107865780601f1061075b57610100808354040283529160200191610786565b820191906000526020600020905b81548152906001019060200180831161076957829003601f168201915b50505050508152602001600382015481526020016004820160009054906101000a900460ff16151515158152602001600582015481526020016006820154815260200160078201805480602002602001604051908101604052809291908181526020016000905b8282101561089957838290600052602060002001805461080c90611fb1565b80601f016020809104026020016040519081016040528092919081815260200182805461083890611fb1565b80156108855780601f1061085a57610100808354040283529160200191610885565b820191906000526020600020905b81548152906001019060200180831161086857829003601f168201915b5050505050815260200190600101906107ed565b5050505081526020016008820180546108b190611fb1565b80601f01602080910402602001604051908101604052809291908181526020018280546108dd90611fb1565b801561092a5780601f106108ff5761010080835404028352916020019161092a565b820191906000526020600020905b81548152906001019060200180831161090d57829003601f168201915b5050505050815260200160098201548152505083838151811061094f5761094f611f6c565b602002602001018190525050808061096690611f98565b91505061062f565b50919050565b600460205260009081526040902080546001820180546001600160a01b0390921692916109a090611fb1565b80601f01602080910402602001604051908101604052809291908181526020018280546109cc90611fb1565b8015610a195780601f106109ee57610100808354040283529160200191610a19565b820191906000526020600020905b8154815290600101906020018083116109fc57829003601f168201915b505050505090806002018054610a2e90611fb1565b80601f0160208091040260200160405190810160405280929190818152602001828054610a5a90611fb1565b8015610aa75780601f10610a7c57610100808354040283529160200191610aa7565b820191906000526020600020905b815481529060010190602001808311610a8a57829003601f168201915b50505060038401546004850154600586015460068701546008880180549798949760ff90941696509194509291610add90611fb1565b80601f0160208091040260200160405190810160405280929190818152602001828054610b0990611fb1565b8015610b565780601f10610b2b57610100808354040283529160200191610b56565b820191906000526020600020905b815481529060010190602001808311610b3957829003601f168201915b5050505050908060090154905089565b604080516101408101825233815260208082018a81528284018a9052606083018c905260016080840181905260a0840189905260c0840188905260e084018a90526101008401869052610120840187905260035460009081526004845294909420835181546001600160a01b0319166001600160a01b039091161781559051805193949193610bfd9392850192919091019061183a565b5060408201518051610c1991600284019160209091019061183a565b5060608201516003820155608082015160048201805460ff191691151591909117905560a0820151600582015560c0820151600682015560e08201518051610c6b9160078401916020909101906118ba565b506101008201518051610c8891600884019160209091019061183a565b506101208201518160090155905050600360008154610ca690611f98565b90915550604080516001808252818301909252600091602080830190803683370190505090503381600081518110610ce057610ce0611f6c565b6001600160a01b039290921660209283029190910190910152604080516001808252818301909252600091816020016020820280368337019050509050600181600081518110610d3257610d32611f6c565b6020908102919091010152604080516001808252818301909252600091816020015b6060815260200190600190039081610d545790505090506040518060200160405280600081525081600081518110610d8e57610d8e611f6c565b6020908102919091010152604051634637423960e11b81526001600160a01b037f00000000000000000000000000000000000000000000000000000000000000001690638c6e847290610de990869086908690600401612015565b6000604051808303816000875af1158015610e08573d6000803e3d6000fd5b505050506040513d6000823e601f3d908101601f19168201604052610e309190810190612058565b505050505050505050505050565b60607f00000000000000000000000000000000000000000000000000000000000000006001600160a01b0316836001600160a01b031614610e7e57600080fd5b60008281526004602052604090206001018054610e9a90611fb1565b80601f0160208091040260200160405190810160405280929190818152602001828054610ec690611fb1565b8015610f135780601f10610ee857610100808354040283529160200191610f13565b820191906000526020600020905b815481529060010190602001808311610ef657829003601f168201915b5050505050905092915050565b610f2861141f565b6001600160a01b038116610f925760405162461bcd60e51b815260206004820152602660248201527f4f776e61626c653a206e6577206f776e657220697320746865207a65726f206160448201526564647265737360d01b60648201526084015b60405180910390fd5b610409816114b9565b610fa361141f565b6003548210610fc557604051634a1850bf60e11b815260040160405180910390fd5b610fd0600354611509565b60008281526006602090815260408083206001600160a01b038516845290915290205460ff161561101457604051634641bb4760e01b815260040160405180910390fd5b60008281526004602090815260408083208151610140810190925280546001600160a01b03168252600181018054929391929184019161105390611fb1565b80601f016020809104026020016040519081016040528092919081815260200182805461107f90611fb1565b80156110cc5780601f106110a1576101008083540402835291602001916110cc565b820191906000526020600020905b8154815290600101906020018083116110af57829003601f168201915b505050505081526020016002820180546110e590611fb1565b80601f016020809104026020016040519081016040528092919081815260200182805461111190611fb1565b801561115e5780601f106111335761010080835404028352916020019161115e565b820191906000526020600020905b81548152906001019060200180831161114157829003601f168201915b50505050508152602001600382015481526020016004820160009054906101000a900460ff16151515158152602001600582015481526020016006820154815260200160078201805480602002602001604051908101604052809291908181526020016000905b828210156112715783829060005260206000200180546111e490611fb1565b80601f016020809104026020016040519081016040528092919081815260200182805461121090611fb1565b801561125d5780601f106112325761010080835404028352916020019161125d565b820191906000526020600020905b81548152906001019060200180831161124057829003601f168201915b5050505050815260200190600101906111c5565b50505050815260200160088201805461128990611fb1565b80601f01602080910402602001604051908101604052809291908181526020018280546112b590611fb1565b80156113025780601f106112d757610100808354040283529160200191611302565b820191906000526020600020905b8154815290600101906020018083116112e557829003601f168201915b50505050508152602001600982015481525050905080608001516113395760405163d7c0312f60e01b815260040160405180910390fd5b600083815260056020526040812080549161135383611f98565b909155505060008381526006602090815260408083206001600160a01b03861684528252808320805460ff191660011790556060840151868452600590925290912054036113b657600083815260046020819052604090912001805460ff191690555b6113c0838361154e565b505050565b60006001600160e01b03198216632a9f3abf60e11b148061036f57506301ffc9a760e01b6001600160e01b031983161461036f565b6001600160a01b038116600090815260018301602052604081205415155b9392505050565b6000546001600160a01b031633146105775760405162461bcd60e51b815260206004820181905260248201527f4f776e61626c653a2063616c6c6572206973206e6f7420746865206f776e65726044820152606401610f89565b6000611418836001600160a01b0384166116ad565b600061036f825490565b600061141883836117a0565b6000611418836001600160a01b0384166117ca565b600080546001600160a01b038381166001600160a01b0319831681178455604051919092169283917f8be0079c531659141344cd1fd0a4f28419497f9722a3daafe3b4186f6b6457e09190a35050565b6104098160405160240161151f91815260200190565b60408051601f198184030181529190526020810180516001600160e01b031663f82c50f160e01b179052611819565b60408051600180825281830190925260009160208083019080368337019050509050818160008151811061158457611584611f6c565b6001600160a01b03929092166020928302919091019091015260408051600180825281830190925260009181602001602082028036833701905050905083816000815181106115d5576115d5611f6c565b602090810291909101015260408051600180825281830190925260009181602001602082028036833701905050905060018160008151811061161957611619611f6c565b60209081029190910101526040516339b2213760e21b81526001600160a01b037f0000000000000000000000000000000000000000000000000000000000000000169063e6c884dc90611674908690869086906004016120e8565b600060405180830381600087803b15801561168e57600080fd5b505af11580156116a2573d6000803e3d6000fd5b505050505050505050565b600081815260018301602052604081205480156117965760006116d1600183612121565b85549091506000906116e590600190612121565b905081811461174a57600086600001828154811061170557611705611f6c565b906000526020600020015490508087600001848154811061172857611728611f6c565b6000918252602080832090910192909255918252600188019052604090208390555b855486908061175b5761175b612138565b60019003818190600052602060002001600090559055856001016000868152602001908152602001600020600090556001935050505061036f565b600091505061036f565b60008260000182815481106117b7576117b7611f6c565b9060005260206000200154905092915050565b60008181526001830160205260408120546118115750815460018181018455600084815260208082209093018490558454848252828601909352604090209190915561036f565b50600061036f565b80516a636f6e736f6c652e6c6f67602083016000808483855afa5050505050565b82805461184690611fb1565b90600052602060002090601f01602090048101928261186857600085556118ae565b82601f1061188157805160ff19168380011785556118ae565b828001600101855582156118ae579182015b828111156118ae578251825591602001919060010190611893565b506104b6929150611913565b828054828255906000526020600020908101928215611907579160200282015b8281111561190757825180516118f791849160209091019061183a565b50916020019190600101906118da565b506104b6929150611928565b5b808211156104b65760008155600101611914565b808211156104b657600061193c8282611945565b50600101611928565b50805461195190611fb1565b6000825580601f10611961575050565b601f0160209004906000526020600020908101906104099190611913565b60006020828403121561199157600080fd5b81356001600160e01b03198116811461141857600080fd5b80356001600160a01b03811681146119c057600080fd5b919050565b6000602082840312156119d757600080fd5b611418826119a9565b600081518084526020808501945080840160005b83811015611a195781516001600160a01b0316875295820195908201906001016119f4565b509495945050505050565b60208152600061141860208301846119e0565b600060208284031215611a4957600080fd5b5035919050565b634e487b7160e01b600052604160045260246000fd5b604051601f8201601f191681016001600160401b0381118282101715611a8e57611a8e611a50565b604052919050565b600082601f830112611aa757600080fd5b81356001600160401b03811115611ac057611ac0611a50565b611ad3601f8201601f1916602001611a66565b818152846020838601011115611ae857600080fd5b816020850160208301376000918101602001919091529392505050565b60008060408385031215611b1857600080fd5b8235915060208301356001600160401b03811115611b3557600080fd5b611b4185828601611a96565b9150509250929050565b60008060408385031215611b5e57600080fd5b82359150611b6e602084016119a9565b90509250929050565b6000815180845260005b81811015611b9d57602081850181015186830182015201611b81565b81811115611baf576000602083870101525b50601f01601f19169290920160200192915050565b600081518084526020808501808196508360051b8101915082860160005b85811015611c0c578284038952611bfa848351611b77565b98850198935090840190600101611be2565b5091979650505050505050565b60006020808301818452808551808352604092508286019150828160051b87010184880160005b83811015611d1d57888303603f19018552815180516001600160a01b0316845261014088820151818a870152611c7882870182611b77565b9150508782015185820389870152611c908282611b77565b9150506060808301518187015250608080830151611cb18288018215159052565b505060a0828101519086015260c0808301519086015260e08083015186830382880152611cde8382611bc4565b925050506101008083015186830382880152611cfa8382611b77565b610120948501519790940196909652505094870194925090860190600101611c40565b509098975050505050505050565b6001600160a01b038a16815261012060208201819052600090611d508382018c611b77565b90508281036040840152611d64818b611b77565b905088606084015287151560808401528660a08401528560c084015282810360e0840152611d928186611b77565b915050826101008301529a9950505050505050505050565b60006001600160401b03821115611dc357611dc3611a50565b5060051b60200190565b600082601f830112611dde57600080fd5b81356020611df3611dee83611daa565b611a66565b82815260059290921b84018101918181019086841115611e1257600080fd5b8286015b84811015611e515780356001600160401b03811115611e355760008081fd5b611e438986838b0101611a96565b845250918301918301611e16565b509695505050505050565b600080600080600080600080610100898b031215611e7957600080fd5b8835975060208901356001600160401b0380821115611e9757600080fd5b611ea38c838d01611a96565b985060408b0135915080821115611eb957600080fd5b611ec58c838d01611a96565b975060608b0135915080821115611edb57600080fd5b611ee78c838d01611dcd565b965060808b0135955060a08b0135945060c08b0135935060e08b0135915080821115611f1257600080fd5b50611f1f8b828c01611a96565b9150509295985092959890939650565b60008060408385031215611f4257600080fd5b611f4b836119a9565b946020939093013593505050565b6020815260006114186020830184611b77565b634e487b7160e01b600052603260045260246000fd5b634e487b7160e01b600052601160045260246000fd5b600060018201611faa57611faa611f82565b5060010190565b600181811c90821680611fc557607f821691505b60208210810361096e57634e487b7160e01b600052602260045260246000fd5b600081518084526020808501945080840160005b83811015611a1957815187529582019590820190600101611ff9565b60608152600061202860608301866119e0565b828103602084015261203a8186611fe5565b9050828103604084015261204e8185611bc4565b9695505050505050565b6000602080838503121561206b57600080fd5b82516001600160401b0381111561208157600080fd5b8301601f8101851361209257600080fd5b80516120a0611dee82611daa565b81815260059190911b820183019083810190878311156120bf57600080fd5b928401925b828410156120dd578351825292840192908401906120c4565b979650505050505050565b6060815260006120fb60608301866119e0565b828103602084015261210d8186611fe5565b9050828103604084015261204e8185611fe5565b60008282101561213357612133611f82565b500390565b634e487b7160e01b600052603160045260246000fdfea264697066735822122035c906a0718d67015b053503e7f22a1709d821f02ef3190b402ca74ee489430064736f6c634300080d0033",
  "linkReferences": {},
  "deployedLinkReferences": {}
}