{
  "_format": "hh-sol-artifact-1",
  "contractName": "Geocache",
  "sourceName": "contracts/Geocache.sol",
  "abi": [
    {
      "inputs": [
        {
          "internalType": "address",
          "name": "_creatorContract",
          "type": "address"
        }
      ],
      "stateMutability": "nonpayable",
      "type": "constructor"
    },
    {
      "inputs": [
        {
          "internalType": "string",
          "name": "msg",
          "type": "string"
        }
      ],
      "name": "NonExistentToken",
      "type": "error"
    },
    {
      "inputs": [
        {
          "internalType": "string",
          "name": "msg",
          "type": "string"
        }
      ],
      "name": "NotActiveGeocache",
      "type": "error"
    },
    {
      "inputs": [
        {
          "internalType": "string",
          "name": "msg",
          "type": "string"
        }
      ],
      "name": "NotCreator",
      "type": "error"
    },
    {
      "inputs": [
        {
          "internalType": "string",
          "name": "msg",
          "type": "string"
        }
      ],
      "name": "UserAlreadyFound",
      "type": "error"
    },
    {
      "anonymous": false,
      "inputs": [
        {
          "indexed": true,
          "internalType": "address",
          "name": "account",
          "type": "address"
        },
        {
          "indexed": true,
          "internalType": "address",
          "name": "sender",
          "type": "address"
        }
      ],
      "name": "AdminApproved",
      "type": "event"
    },
    {
      "anonymous": false,
      "inputs": [
        {
          "indexed": true,
          "internalType": "address",
          "name": "account",
          "type": "address"
        },
        {
          "indexed": true,
          "internalType": "address",
          "name": "sender",
          "type": "address"
        }
      ],
      "name": "AdminRevoked",
      "type": "event"
    },
    {
      "anonymous": false,
      "inputs": [
        {
          "indexed": false,
          "internalType": "address",
          "name": "creator",
          "type": "address"
        },
        {
          "indexed": false,
          "internalType": "string",
          "name": "name",
          "type": "string"
        },
        {
          "indexed": false,
          "internalType": "uint256",
          "name": "id",
          "type": "uint256"
        }
      ],
      "name": "GeocacheCreated",
      "type": "event"
    },
    {
      "anonymous": false,
      "inputs": [
        {
          "indexed": false,
          "internalType": "address",
          "name": "receiver",
          "type": "address"
        },
        {
          "indexed": false,
          "internalType": "uint256",
          "name": "geocacheIndex",
          "type": "uint256"
        },
        {
          "indexed": false,
          "internalType": "uint256",
          "name": "itemIndex",
          "type": "uint256"
        }
      ],
      "name": "GeocacheItemMinted",
      "type": "event"
    },
    {
      "anonymous": false,
      "inputs": [
        {
          "indexed": true,
          "internalType": "address",
          "name": "previousOwner",
          "type": "address"
        },
        {
          "indexed": true,
          "internalType": "address",
          "name": "newOwner",
          "type": "address"
        }
      ],
      "name": "OwnershipTransferred",
      "type": "event"
    },
    {
      "inputs": [
        {
          "internalType": "address",
          "name": "admin",
          "type": "address"
        }
      ],
      "name": "approveAdmin",
      "outputs": [],
      "stateMutability": "nonpayable",
      "type": "function"
    },
    {
      "inputs": [
        {
          "internalType": "uint256",
          "name": "_geocacheId",
          "type": "uint256"
        }
      ],
      "name": "checkIfUserHasMinted",
      "outputs": [
        {
          "internalType": "bool",
          "name": "",
          "type": "bool"
        }
      ],
      "stateMutability": "view",
      "type": "function"
    },
    {
      "inputs": [],
      "name": "creatorContract",
      "outputs": [
        {
          "internalType": "address",
          "name": "",
          "type": "address"
        }
      ],
      "stateMutability": "view",
      "type": "function"
    },
    {
      "inputs": [
        {
          "internalType": "uint256",
          "name": "",
          "type": "uint256"
        }
      ],
      "name": "geocacheToNumFound",
      "outputs": [
        {
          "internalType": "uint256",
          "name": "",
          "type": "uint256"
        }
      ],
      "stateMutability": "view",
      "type": "function"
    },
    {
      "inputs": [],
      "name": "getAdmins",
      "outputs": [
        {
          "internalType": "address[]",
          "name": "admins",
          "type": "address[]"
        }
      ],
      "stateMutability": "view",
      "type": "function"
    },
    {
      "inputs": [],
      "name": "getAllActiveGeocacheIDs",
      "outputs": [
        {
          "internalType": "uint256[]",
          "name": "",
          "type": "uint256[]"
        }
      ],
      "stateMutability": "view",
      "type": "function"
    },
    {
      "inputs": [
        {
          "internalType": "uint256",
          "name": "geocacheIndex",
          "type": "uint256"
        }
      ],
      "name": "getGeolocationsOfGeocache",
      "outputs": [
        {
          "internalType": "string[]",
          "name": "",
          "type": "string[]"
        }
      ],
      "stateMutability": "view",
      "type": "function"
    },
    {
      "inputs": [
        {
          "internalType": "address",
          "name": "_user",
          "type": "address"
        }
      ],
      "name": "getUsersGeocaches",
      "outputs": [
        {
          "internalType": "uint256[]",
          "name": "",
          "type": "uint256[]"
        }
      ],
      "stateMutability": "view",
      "type": "function"
    },
    {
      "inputs": [
        {
          "internalType": "uint256",
          "name": "",
          "type": "uint256"
        },
        {
          "internalType": "address",
          "name": "",
          "type": "address"
        }
      ],
      "name": "hasMintedTokenId",
      "outputs": [
        {
          "internalType": "bool",
          "name": "",
          "type": "bool"
        }
      ],
      "stateMutability": "view",
      "type": "function"
    },
    {
      "inputs": [
        {
          "internalType": "address",
          "name": "admin",
          "type": "address"
        }
      ],
      "name": "isAdmin",
      "outputs": [
        {
          "internalType": "bool",
          "name": "",
          "type": "bool"
        }
      ],
      "stateMutability": "view",
      "type": "function"
    },
    {
      "inputs": [
        {
          "internalType": "uint256",
          "name": "_geocacheId",
          "type": "uint256"
        },
        {
          "internalType": "address",
          "name": "_user",
          "type": "address"
        }
      ],
      "name": "mintItemInGeocache",
      "outputs": [],
      "stateMutability": "nonpayable",
      "type": "function"
    },
    {
      "inputs": [
        {
          "internalType": "uint256",
          "name": "_numItems",
          "type": "uint256"
        },
        {
          "internalType": "string",
          "name": "_tokenURI",
          "type": "string"
        },
        {
          "internalType": "string",
          "name": "_dateCreated",
          "type": "string"
        },
        {
          "internalType": "string[]",
          "name": "_itemGeolocations",
          "type": "string[]"
        },
        {
          "internalType": "string",
          "name": "_epicenterLat",
          "type": "string"
        },
        {
          "internalType": "string",
          "name": "_epicenterLong",
          "type": "string"
        },
        {
          "internalType": "uint256",
          "name": "_radius",
          "type": "uint256"
        },
        {
          "internalType": "string",
          "name": "_name",
          "type": "string"
        },
        {
          "internalType": "string",
          "name": "_originStory",
          "type": "string"
        }
      ],
      "name": "newGeocache",
      "outputs": [],
      "stateMutability": "nonpayable",
      "type": "function"
    },
    {
      "inputs": [],
      "name": "numActiveGeocaches",
      "outputs": [
        {
          "internalType": "uint256",
          "name": "",
          "type": "uint256"
        }
      ],
      "stateMutability": "view",
      "type": "function"
    },
    {
      "inputs": [],
      "name": "numGeocaches",
      "outputs": [
        {
          "internalType": "uint256",
          "name": "",
          "type": "uint256"
        }
      ],
      "stateMutability": "view",
      "type": "function"
    },
    {
      "inputs": [],
      "name": "owner",
      "outputs": [
        {
          "internalType": "address",
          "name": "",
          "type": "address"
        }
      ],
      "stateMutability": "view",
      "type": "function"
    },
    {
      "inputs": [],
      "name": "renounceOwnership",
      "outputs": [],
      "stateMutability": "nonpayable",
      "type": "function"
    },
    {
      "inputs": [
        {
          "internalType": "address",
          "name": "admin",
          "type": "address"
        }
      ],
      "name": "revokeAdmin",
      "outputs": [],
      "stateMutability": "nonpayable",
      "type": "function"
    },
    {
      "inputs": [
        {
          "internalType": "bytes4",
          "name": "interfaceId",
          "type": "bytes4"
        }
      ],
      "name": "supportsInterface",
      "outputs": [
        {
          "internalType": "bool",
          "name": "",
          "type": "bool"
        }
      ],
      "stateMutability": "view",
      "type": "function"
    },
    {
      "inputs": [
        {
          "internalType": "uint256",
          "name": "",
          "type": "uint256"
        }
      ],
      "name": "tokenIdToGeocache",
      "outputs": [
        {
          "internalType": "address",
          "name": "creator",
          "type": "address"
        },
        {
          "internalType": "string",
          "name": "tokenURI",
          "type": "string"
        },
        {
          "internalType": "string",
          "name": "dateCreated",
          "type": "string"
        },
        {
          "internalType": "uint256",
          "name": "numItems",
          "type": "uint256"
        },
        {
          "internalType": "bool",
          "name": "isActive",
          "type": "bool"
        },
        {
          "internalType": "string",
          "name": "epicenterLat",
          "type": "string"
        },
        {
          "internalType": "string",
          "name": "epicenterLong",
          "type": "string"
        },
        {
          "internalType": "string",
          "name": "name",
          "type": "string"
        },
        {
          "internalType": "uint256",
          "name": "radius",
          "type": "uint256"
        },
        {
          "internalType": "string",
          "name": "originStory",
          "type": "string"
        }
      ],
      "stateMutability": "view",
      "type": "function"
    },
    {
      "inputs": [
        {
          "internalType": "address",
          "name": "_creatorContract",
          "type": "address"
        },
        {
          "internalType": "uint256",
          "name": "_tokenId",
          "type": "uint256"
        }
      ],
      "name": "tokenURI",
      "outputs": [
        {
          "internalType": "string",
          "name": "",
          "type": "string"
        }
      ],
      "stateMutability": "view",
      "type": "function"
    },
    {
      "inputs": [
        {
          "internalType": "address",
          "name": "newOwner",
          "type": "address"
        }
      ],
      "name": "transferOwnership",
      "outputs": [],
      "stateMutability": "nonpayable",
      "type": "function"
    },
    {
      "inputs": [
        {
          "internalType": "uint256",
          "name": "_tokenId",
          "type": "uint256"
        },
        {
          "internalType": "string",
          "name": "_newTokenURI",
          "type": "string"
        }
      ],
      "name": "updateGeocacheTokenURI",
      "outputs": [],
      "stateMutability": "nonpayable",
      "type": "function"
    },
    {
      "inputs": [
        {
          "internalType": "uint256",
          "name": "_tokenId",
          "type": "uint256"
        }
      ],
      "name": "uri",
      "outputs": [
        {
          "internalType": "string",
          "name": "",
          "type": "string"
        }
      ],
      "stateMutability": "view",
      "type": "function"
    },
    {
      "inputs": [
        {
          "internalType": "address",
          "name": "",
          "type": "address"
        },
        {
          "internalType": "uint256",
          "name": "",
          "type": "uint256"
        }
      ],
      "name": "userToGeocache",
      "outputs": [
        {
          "internalType": "uint256",
          "name": "",
          "type": "uint256"
        }
      ],
      "stateMutability": "view",
      "type": "function"
    }
  ],
  "bytecode": "0x60a06040523480156200001157600080fd5b5060405162002711380380620027118339810160408190526200003491620000a1565b6200003f3362000051565b6001600160a01b0316608052620000d3565b600080546001600160a01b038381166001600160a01b0319831681178455604051919092169283917f8be0079c531659141344cd1fd0a4f28419497f9722a3daafe3b4186f6b6457e09190a35050565b600060208284031215620000b457600080fd5b81516001600160a01b0381168114620000cc57600080fd5b9392505050565b608051612614620000fd600039600081816101e701528181610ad10152611afb01526126146000f3fe608060405234801561001057600080fd5b50600436106101585760003560e01c806380b501b3116100c3578063cb948fc51161007c578063cb948fc51461033c578063d96c713a14610345578063e9dc637514610373578063efa3c8b414610386578063f2fde38b146103a6578063fa5ab379146103b957600080fd5b806380b501b3146102c057806380e604e8146102d35780638da5cb5b146102e6578063996f12de146102f75780639e6e7a0b14610320578063c1361b671461033357600080fd5b80635620749f116101155780635620749f146102215780636325ce2f1461024f5780636d73e66914610262578063715018a6146102755780637a50fc4a1461027d5780637f49cac01461029257600080fd5b806301ffc9a71461015d5780630e89341c1461018557806324d7806c146101a55780632d345670146101b857806331ae450b146101cd5780633dae35ce146101e2575b600080fd5b61017061016b366004611e1e565b6103cc565b60405190151581526020015b60405180910390f35b610198610193366004611e48565b61042d565b60405161017c9190611eae565b6101706101b3366004611edd565b6104d2565b6101cb6101c6366004611edd565b61050b565b005b6101d5610569565b60405161017c9190611f3c565b6102097f000000000000000000000000000000000000000000000000000000000000000081565b6040516001600160a01b03909116815260200161017c565b61024161022f366004611e48565b60066020526000908152604090205481565b60405190815260200161017c565b6101cb61025d366004612004565b610617565b6101cb610270366004611edd565b6106c5565b6101cb61071d565b610285610731565b60405161017c919061207a565b6101706102a036600461208d565b600760209081526000928352604080842090915290825290205460ff1681565b6101cb6102ce36600461216b565b6107eb565b6102416102e1366004612299565b610b9d565b6000546001600160a01b0316610209565b61030a610305366004611e48565b610bce565b60405161017c9a999897969594939291906122c3565b61028561032e366004611edd565b610f5d565b61024160045481565b61024160035481565b610170610353366004611e48565b600090815260076020908152604080832033845290915290205460ff1690565b610198610381366004612299565b610fc8565b610399610394366004611e48565b61106e565b60405161017c91906123c8565b6101cb6103b4366004611edd565b61115d565b6101cb6103c736600461208d565b6111d3565b60006001600160e01b0319821663e9dc637560e01b14806103fd57506001600160e01b031982166354c1bcd960e01b145b8061041857506001600160e01b031982166301ffc9a760e01b145b806104275750610427826118ca565b92915050565b600081815260056020526040902060010180546060919061044d906123db565b80601f0160208091040260200160405190810160405280929190818152602001828054610479906123db565b80156104c65780601f1061049b576101008083540402835291602001916104c6565b820191906000526020600020905b8154815290600101906020018083116104a957829003601f168201915b50505050509050919050565b6000816001600160a01b03166104f06000546001600160a01b031690565b6001600160a01b0316148061042757506104276001836118ff565b610513611924565b61051e6001826118ff565b156105665760405133906001600160a01b038316907f7c0c3c84c67c85fcac635147348bfe374c24a1a93d0366d1cfe9d8853cbf89d590600090a361056460018261197e565b505b50565b60606105756001611993565b6001600160401b0381111561058c5761058c611f4f565b6040519080825280602002602001820160405280156105b5578160200160208202803683370190505b50905060005b6105c56001611993565b811015610613576105d760018261199d565b8282815181106105e9576105e9612415565b6001600160a01b03909216602092830291909101909101528061060b81612441565b9150506105bb565b5090565b600082815260056020526040902080546001600160a01b031633146106aa5760405163453861b360e01b815260206004820152603c60248201527f4e6f74207468652063726561746f72206f6620746869732067656f636163686560448201527f2e20596f752063616e6e6f742075706461746520746865205552492e0000000060648201526084015b60405180910390fd5b81516106bf9060018301906020850190611cd9565b50505050565b6106cd611924565b6106d86001826118ff565b6105665760405133906001600160a01b038316907f7e1a1a08d52e4ba0e21554733d66165fd5151f99460116223d9e3a608eec5cb190600090a36105646001826119a9565b610725611924565b61072f60006119be565b565b606060006004546001600160401b0381111561074f5761074f611f4f565b604051908082528060200260200182016040528015610778578160200160208202803683370190505b509050600060015b60035481116107e3576000818152600560205260409020600481015460ff16156107d057818484815181106107b7576107b7612415565b6020908102919091010152826107cc81612441565b9350505b50806107db81612441565b915050610780565b509092915050565b6003600081546107fa90612441565b909155506004805460009061080e90612441565b90915550604080516101608101825233815260208082018b81528284018b9052606083018d905260016080840181905260a084018a905260c0840189905260e084018b905261010084018790526101208401889052610140840186905260035460009081526005845294909420835181546001600160a01b0319166001600160a01b0390911617815590518051939491936108b193928501929190910190611cd9565b50604082015180516108cd916002840191602090910190611cd9565b5060608201516003820155608082015160048201805460ff191691151591909117905560a0820151805161090b916005840191602090910190611cd9565b5060c08201518051610927916006840191602090910190611cd9565b5060e08201518051610943916007840191602090910190611d59565b506101008201518051610960916008840191602090910190611cd9565b506101208201516009820155610140820151805161098891600a840191602090910190611cd9565b505033600081815260086020908152604080832060038054825460018082018555938752858720015554845260078352818420948452938252808320805460ff191685179055805184815280820190915291935090919082810190803683370190505090503381600081518110610a0157610a01612415565b6001600160a01b039290921660209283029190910190910152604080516001808252818301909252600091816020016020820280368337019050509050600181600081518110610a5357610a53612415565b6020908102919091010152604080516001808252818301909252600091816020015b6060815260200190600190039081610a755790505090506040518060200160405280600081525081600081518110610aaf57610aaf612415565b6020908102919091010152604051634637423960e11b81526001600160a01b037f00000000000000000000000000000000000000000000000000000000000000001690638c6e847290610b0a9086908690869060040161245a565b6000604051808303816000875af1158015610b29573d6000803e3d6000fd5b505050506040513d6000823e601f3d908101601f19168201604052610b51919081019061249d565b507f6eb6ad71f0a3b9f2fa6652a096ca4bd0851eb41211391b7aab2e8564794aac2a3386600354604051610b879392919061252d565b60405180910390a1505050505050505050505050565b60086020528160005260406000208181548110610bb957600080fd5b90600052602060002001600091509150505481565b600560205260009081526040902080546001820180546001600160a01b039092169291610bfa906123db565b80601f0160208091040260200160405190810160405280929190818152602001828054610c26906123db565b8015610c735780601f10610c4857610100808354040283529160200191610c73565b820191906000526020600020905b815481529060010190602001808311610c5657829003601f168201915b505050505090806002018054610c88906123db565b80601f0160208091040260200160405190810160405280929190818152602001828054610cb4906123db565b8015610d015780601f10610cd657610100808354040283529160200191610d01565b820191906000526020600020905b815481529060010190602001808311610ce457829003601f168201915b50505050600383015460048401546005850180549495929460ff909216935090610d2a906123db565b80601f0160208091040260200160405190810160405280929190818152602001828054610d56906123db565b8015610da35780601f10610d7857610100808354040283529160200191610da3565b820191906000526020600020905b815481529060010190602001808311610d8657829003601f168201915b505050505090806006018054610db8906123db565b80601f0160208091040260200160405190810160405280929190818152602001828054610de4906123db565b8015610e315780601f10610e0657610100808354040283529160200191610e31565b820191906000526020600020905b815481529060010190602001808311610e1457829003601f168201915b505050505090806008018054610e46906123db565b80601f0160208091040260200160405190810160405280929190818152602001828054610e72906123db565b8015610ebf5780601f10610e9457610100808354040283529160200191610ebf565b820191906000526020600020905b815481529060010190602001808311610ea257829003601f168201915b50505050509080600901549080600a018054610eda906123db565b80601f0160208091040260200160405190810160405280929190818152602001828054610f06906123db565b8015610f535780601f10610f2857610100808354040283529160200191610f53565b820191906000526020600020905b815481529060010190602001808311610f3657829003601f168201915b505050505090508a565b6001600160a01b0381166000908152600860209081526040918290208054835181840281018401909452808452606093928301828280156104c657602002820191906000526020600020905b815481526020019060010190808311610fa95750505050509050919050565b6000818152600560205260409020600101805460609190610fe8906123db565b80601f0160208091040260200160405190810160405280929190818152602001828054611014906123db565b80156110615780601f1061103657610100808354040283529160200191611061565b820191906000526020600020905b81548152906001019060200180831161104457829003601f168201915b5050505050905092915050565b606060056000838152602001908152602001600020600701805480602002602001604051908101604052809291908181526020016000905b828210156111525783829060005260206000200180546110c5906123db565b80601f01602080910402602001604051908101604052809291908181526020018280546110f1906123db565b801561113e5780601f106111135761010080835404028352916020019161113e565b820191906000526020600020905b81548152906001019060200180831161112157829003601f168201915b5050505050815260200190600101906110a6565b505050509050919050565b611165611924565b6001600160a01b0381166111ca5760405162461bcd60e51b815260206004820152602660248201527f4f776e61626c653a206e6577206f776e657220697320746865207a65726f206160448201526564647265737360d01b60648201526084016106a1565b610566816119be565b6111db611924565b600354821061124757604051635d02b60b60e01b815260206004820152603160248201527f5468697320746f6b656e20646f65736e27742065786973742e20486f772061726044820152706520796f7520646f696e6720746869733f60781b60648201526084016106a1565b60008281526007602090815260408083206001600160a01b038516845290915290205460ff16156112bb576040516311b45c1d60e21b815260206004820152601f60248201527f596f7527766520616c726561647920666f756e642074686973206974656d2e0060448201526064016106a1565b60008281526005602090815260408083208151610160810190925280546001600160a01b0316825260018101805492939192918401916112fa906123db565b80601f0160208091040260200160405190810160405280929190818152602001828054611326906123db565b80156113735780601f1061134857610100808354040283529160200191611373565b820191906000526020600020905b81548152906001019060200180831161135657829003601f168201915b5050505050815260200160028201805461138c906123db565b80601f01602080910402602001604051908101604052809291908181526020018280546113b8906123db565b80156114055780601f106113da57610100808354040283529160200191611405565b820191906000526020600020905b8154815290600101906020018083116113e857829003601f168201915b505050918352505060038201546020820152600482015460ff161515604082015260058201805460609092019161143b906123db565b80601f0160208091040260200160405190810160405280929190818152602001828054611467906123db565b80156114b45780601f10611489576101008083540402835291602001916114b4565b820191906000526020600020905b81548152906001019060200180831161149757829003601f168201915b505050505081526020016006820180546114cd906123db565b80601f01602080910402602001604051908101604052809291908181526020018280546114f9906123db565b80156115465780601f1061151b57610100808354040283529160200191611546565b820191906000526020600020905b81548152906001019060200180831161152957829003601f168201915b5050505050815260200160078201805480602002602001604051908101604052809291908181526020016000905b82821015611620578382906000526020600020018054611593906123db565b80601f01602080910402602001604051908101604052809291908181526020018280546115bf906123db565b801561160c5780601f106115e15761010080835404028352916020019161160c565b820191906000526020600020905b8154815290600101906020018083116115ef57829003601f168201915b505050505081526020019060010190611574565b505050508152602001600882018054611638906123db565b80601f0160208091040260200160405190810160405280929190818152602001828054611664906123db565b80156116b15780601f10611686576101008083540402835291602001916116b1565b820191906000526020600020905b81548152906001019060200180831161169457829003601f168201915b5050505050815260200160098201548152602001600a820180546116d4906123db565b80601f0160208091040260200160405190810160405280929190818152602001828054611700906123db565b801561174d5780601f106117225761010080835404028352916020019161174d565b820191906000526020600020905b81548152906001019060200180831161173057829003601f168201915b505050505081525050905080608001516117b85760405163ea5d596f60e01b815260206004820152602560248201527f54686973206973206e6f206c6f6e67657220616e206163746976652067656f6360448201526430b1b4329760d91b60648201526084016106a1565b60008381526006602052604081208054916117d283612441565b909155505060008381526007602090815260408083206001600160a01b03861684528252808320805460ff191660011790556060840151868452600690925290912054036118485760008381526005602052604081206004908101805460ff19169055805490919061184390612561565b909155505b6118528383611a0e565b6001600160a01b0382166000818152600860209081526040808320805460018101825590845282842001879055868352600682529182902054825193845290830186905282820152517f7ed2deb7015f264677924005fd808fb4d654bcd7a3ba0a12ede865d506f962df9181900360600190a1505050565b60006001600160e01b03198216632a9f3abf60e11b148061042757506301ffc9a760e01b6001600160e01b0319831614610427565b6001600160a01b038116600090815260018301602052604081205415155b9392505050565b6000546001600160a01b0316331461072f5760405162461bcd60e51b815260206004820181905260248201527f4f776e61626c653a2063616c6c6572206973206e6f7420746865206f776e657260448201526064016106a1565b600061191d836001600160a01b038416611b6d565b6000610427825490565b600061191d8383611c60565b600061191d836001600160a01b038416611c8a565b600080546001600160a01b038381166001600160a01b0319831681178455604051919092169283917f8be0079c531659141344cd1fd0a4f28419497f9722a3daafe3b4186f6b6457e09190a35050565b604080516001808252818301909252600091602080830190803683370190505090508181600081518110611a4457611a44612415565b6001600160a01b0392909216602092830291909101909101526040805160018082528183019092526000918160200160208202803683370190505090508381600081518110611a9557611a95612415565b6020908102919091010152604080516001808252818301909252600091816020016020820280368337019050509050600181600081518110611ad957611ad9612415565b60209081029190910101526040516339b2213760e21b81526001600160a01b037f0000000000000000000000000000000000000000000000000000000000000000169063e6c884dc90611b3490869086908690600401612578565b600060405180830381600087803b158015611b4e57600080fd5b505af1158015611b62573d6000803e3d6000fd5b505050505050505050565b60008181526001830160205260408120548015611c56576000611b916001836125b1565b8554909150600090611ba5906001906125b1565b9050818114611c0a576000866000018281548110611bc557611bc5612415565b9060005260206000200154905080876000018481548110611be857611be8612415565b6000918252602080832090910192909255918252600188019052604090208390555b8554869080611c1b57611c1b6125c8565b600190038181906000526020600020016000905590558560010160008681526020019081526020016000206000905560019350505050610427565b6000915050610427565b6000826000018281548110611c7757611c77612415565b9060005260206000200154905092915050565b6000818152600183016020526040812054611cd157508154600181810184556000848152602080822090930184905584548482528286019093526040902091909155610427565b506000610427565b828054611ce5906123db565b90600052602060002090601f016020900481019282611d075760008555611d4d565b82601f10611d2057805160ff1916838001178555611d4d565b82800160010185558215611d4d579182015b82811115611d4d578251825591602001919060010190611d32565b50610613929150611db2565b828054828255906000526020600020908101928215611da6579160200282015b82811115611da65782518051611d96918491602090910190611cd9565b5091602001919060010190611d79565b50610613929150611dc7565b5b808211156106135760008155600101611db3565b80821115610613576000611ddb8282611de4565b50600101611dc7565b508054611df0906123db565b6000825580601f10611e00575050565b601f0160209004906000526020600020908101906105669190611db2565b600060208284031215611e3057600080fd5b81356001600160e01b03198116811461191d57600080fd5b600060208284031215611e5a57600080fd5b5035919050565b6000815180845260005b81811015611e8757602081850181015186830182015201611e6b565b81811115611e99576000602083870101525b50601f01601f19169290920160200192915050565b60208152600061191d6020830184611e61565b80356001600160a01b0381168114611ed857600080fd5b919050565b600060208284031215611eef57600080fd5b61191d82611ec1565b600081518084526020808501945080840160005b83811015611f315781516001600160a01b031687529582019590820190600101611f0c565b509495945050505050565b60208152600061191d6020830184611ef8565b634e487b7160e01b600052604160045260246000fd5b604051601f8201601f191681016001600160401b0381118282101715611f8d57611f8d611f4f565b604052919050565b600082601f830112611fa657600080fd5b81356001600160401b03811115611fbf57611fbf611f4f565b611fd2601f8201601f1916602001611f65565b818152846020838601011115611fe757600080fd5b816020850160208301376000918101602001919091529392505050565b6000806040838503121561201757600080fd5b8235915060208301356001600160401b0381111561203457600080fd5b61204085828601611f95565b9150509250929050565b600081518084526020808501945080840160005b83811015611f315781518752958201959082019060010161205e565b60208152600061191d602083018461204a565b600080604083850312156120a057600080fd5b823591506120b060208401611ec1565b90509250929050565b60006001600160401b038211156120d2576120d2611f4f565b5060051b60200190565b600082601f8301126120ed57600080fd5b813560206121026120fd836120b9565b611f65565b82815260059290921b8401810191818101908684111561212157600080fd5b8286015b848110156121605780356001600160401b038111156121445760008081fd5b6121528986838b0101611f95565b845250918301918301612125565b509695505050505050565b60008060008060008060008060006101208a8c03121561218a57600080fd5b8935985060208a01356001600160401b03808211156121a857600080fd5b6121b48d838e01611f95565b995060408c01359150808211156121ca57600080fd5b6121d68d838e01611f95565b985060608c01359150808211156121ec57600080fd5b6121f88d838e016120dc565b975060808c013591508082111561220e57600080fd5b61221a8d838e01611f95565b965060a08c013591508082111561223057600080fd5b61223c8d838e01611f95565b955060c08c0135945060e08c013591508082111561225957600080fd5b6122658d838e01611f95565b93506101008c013591508082111561227c57600080fd5b506122898c828d01611f95565b9150509295985092959850929598565b600080604083850312156122ac57600080fd5b6122b583611ec1565b946020939093013593505050565b6001600160a01b038b168152610140602082018190526000906122e88382018d611e61565b905082810360408401526122fc818c611e61565b9050896060840152881515608084015282810360a084015261231e8189611e61565b905082810360c08401526123328188611e61565b905082810360e08401526123468187611e61565b9050846101008401528281036101208401526123628185611e61565b9d9c50505050505050505050505050565b600081518084526020808501808196508360051b8101915082860160005b858110156123bb5782840389526123a9848351611e61565b98850198935090840190600101612391565b5091979650505050505050565b60208152600061191d6020830184612373565b600181811c908216806123ef57607f821691505b60208210810361240f57634e487b7160e01b600052602260045260246000fd5b50919050565b634e487b7160e01b600052603260045260246000fd5b634e487b7160e01b600052601160045260246000fd5b6000600182016124535761245361242b565b5060010190565b60608152600061246d6060830186611ef8565b828103602084015261247f818661204a565b905082810360408401526124938185612373565b9695505050505050565b600060208083850312156124b057600080fd5b82516001600160401b038111156124c657600080fd5b8301601f810185136124d757600080fd5b80516124e56120fd826120b9565b81815260059190911b8201830190838101908783111561250457600080fd5b928401925b8284101561252257835182529284019290840190612509565b979650505050505050565b6001600160a01b038416815260606020820181905260009061255190830185611e61565b9050826040830152949350505050565b6000816125705761257061242b565b506000190190565b60608152600061258b6060830186611ef8565b828103602084015261259d818661204a565b90508281036040840152612493818561204a565b6000828210156125c3576125c361242b565b500390565b634e487b7160e01b600052603160045260246000fdfea2646970667358221220f6ad8de98e29b4c4254273210085bce352ad4dd8302a5c5010b316980a75df9164736f6c634300080d0033",
  "linkReferences": {},
  "deployedLinkReferences": {}
}