{
  "_format": "hh-sol-artifact-1",
  "contractName": "Geocache",
  "sourceName": "contracts/Geocache.sol",
  "abi": [
    {
      "inputs": [
        {
          "internalType": "address",
          "name": "_creatorContract",
          "type": "address"
        }
      ],
      "stateMutability": "nonpayable",
      "type": "constructor"
    },
    {
      "inputs": [],
      "name": "NonExistentToken",
      "type": "error"
    },
    {
      "inputs": [],
      "name": "NotActiveGeocache",
      "type": "error"
    },
    {
      "inputs": [],
      "name": "NotCreator",
      "type": "error"
    },
    {
      "inputs": [],
      "name": "UserAlreadyFound",
      "type": "error"
    },
    {
      "anonymous": false,
      "inputs": [
        {
          "indexed": true,
          "internalType": "address",
          "name": "account",
          "type": "address"
        },
        {
          "indexed": true,
          "internalType": "address",
          "name": "sender",
          "type": "address"
        }
      ],
      "name": "AdminApproved",
      "type": "event"
    },
    {
      "anonymous": false,
      "inputs": [
        {
          "indexed": true,
          "internalType": "address",
          "name": "account",
          "type": "address"
        },
        {
          "indexed": true,
          "internalType": "address",
          "name": "sender",
          "type": "address"
        }
      ],
      "name": "AdminRevoked",
      "type": "event"
    },
    {
      "anonymous": false,
      "inputs": [
        {
          "indexed": false,
          "internalType": "address",
          "name": "creator",
          "type": "address"
        },
        {
          "indexed": false,
          "internalType": "string",
          "name": "name",
          "type": "string"
        },
        {
          "indexed": false,
          "internalType": "uint256",
          "name": "id",
          "type": "uint256"
        }
      ],
      "name": "GeocacheCreated",
      "type": "event"
    },
    {
      "anonymous": false,
      "inputs": [
        {
          "indexed": false,
          "internalType": "address",
          "name": "receiver",
          "type": "address"
        },
        {
          "indexed": false,
          "internalType": "uint256",
          "name": "geocacheIndex",
          "type": "uint256"
        },
        {
          "indexed": false,
          "internalType": "uint256",
          "name": "itemIndex",
          "type": "uint256"
        }
      ],
      "name": "GeocacheItemMinted",
      "type": "event"
    },
    {
      "anonymous": false,
      "inputs": [
        {
          "indexed": true,
          "internalType": "address",
          "name": "previousOwner",
          "type": "address"
        },
        {
          "indexed": true,
          "internalType": "address",
          "name": "newOwner",
          "type": "address"
        }
      ],
      "name": "OwnershipTransferred",
      "type": "event"
    },
    {
      "inputs": [
        {
          "internalType": "address",
          "name": "admin",
          "type": "address"
        }
      ],
      "name": "approveAdmin",
      "outputs": [],
      "stateMutability": "nonpayable",
      "type": "function"
    },
    {
      "inputs": [],
      "name": "creatorContract",
      "outputs": [
        {
          "internalType": "address",
          "name": "",
          "type": "address"
        }
      ],
      "stateMutability": "view",
      "type": "function"
    },
    {
      "inputs": [
        {
          "internalType": "uint256",
          "name": "",
          "type": "uint256"
        }
      ],
      "name": "geocacheToNumFound",
      "outputs": [
        {
          "internalType": "uint256",
          "name": "",
          "type": "uint256"
        }
      ],
      "stateMutability": "view",
      "type": "function"
    },
    {
      "inputs": [],
      "name": "getAdmins",
      "outputs": [
        {
          "internalType": "address[]",
          "name": "admins",
          "type": "address[]"
        }
      ],
      "stateMutability": "view",
      "type": "function"
    },
    {
      "inputs": [],
      "name": "getAllActiveGeocacheIDs",
      "outputs": [
        {
          "internalType": "uint256[]",
          "name": "",
          "type": "uint256[]"
        }
      ],
      "stateMutability": "view",
      "type": "function"
    },
    {
      "inputs": [
        {
          "internalType": "uint256",
          "name": "geocacheIndex",
          "type": "uint256"
        }
      ],
      "name": "getGeolocationsOfGeocache",
      "outputs": [
        {
          "internalType": "string[]",
          "name": "",
          "type": "string[]"
        }
      ],
      "stateMutability": "view",
      "type": "function"
    },
    {
      "inputs": [
        {
          "internalType": "address",
          "name": "_user",
          "type": "address"
        }
      ],
      "name": "getUsersGeocaches",
      "outputs": [
        {
          "internalType": "uint256[]",
          "name": "",
          "type": "uint256[]"
        }
      ],
      "stateMutability": "view",
      "type": "function"
    },
    {
      "inputs": [
        {
          "internalType": "uint256",
          "name": "",
          "type": "uint256"
        },
        {
          "internalType": "address",
          "name": "",
          "type": "address"
        }
      ],
      "name": "hasMintedTokenId",
      "outputs": [
        {
          "internalType": "bool",
          "name": "",
          "type": "bool"
        }
      ],
      "stateMutability": "view",
      "type": "function"
    },
    {
      "inputs": [
        {
          "internalType": "address",
          "name": "admin",
          "type": "address"
        }
      ],
      "name": "isAdmin",
      "outputs": [
        {
          "internalType": "bool",
          "name": "",
          "type": "bool"
        }
      ],
      "stateMutability": "view",
      "type": "function"
    },
    {
      "inputs": [
        {
          "internalType": "uint256",
          "name": "_geocacheId",
          "type": "uint256"
        },
        {
          "internalType": "address",
          "name": "_user",
          "type": "address"
        }
      ],
      "name": "mintItemInGeocache",
      "outputs": [],
      "stateMutability": "nonpayable",
      "type": "function"
    },
    {
      "inputs": [
        {
          "internalType": "uint256",
          "name": "_numItems",
          "type": "uint256"
        },
        {
          "internalType": "string",
          "name": "_tokenURI",
          "type": "string"
        },
        {
          "internalType": "string",
          "name": "_dateCreated",
          "type": "string"
        },
        {
          "internalType": "string[]",
          "name": "_itemGeolocations",
          "type": "string[]"
        },
        {
          "internalType": "string",
          "name": "_epicenterLat",
          "type": "string"
        },
        {
          "internalType": "string",
          "name": "_epicenterLong",
          "type": "string"
        },
        {
          "internalType": "uint256",
          "name": "_radius",
          "type": "uint256"
        },
        {
          "internalType": "string",
          "name": "_name",
          "type": "string"
        },
        {
          "internalType": "string",
          "name": "_originStory",
          "type": "string"
        }
      ],
      "name": "newGeocache",
      "outputs": [],
      "stateMutability": "nonpayable",
      "type": "function"
    },
    {
      "inputs": [],
      "name": "numActiveGeocaches",
      "outputs": [
        {
          "internalType": "uint256",
          "name": "",
          "type": "uint256"
        }
      ],
      "stateMutability": "view",
      "type": "function"
    },
    {
      "inputs": [],
      "name": "numGeocaches",
      "outputs": [
        {
          "internalType": "uint256",
          "name": "",
          "type": "uint256"
        }
      ],
      "stateMutability": "view",
      "type": "function"
    },
    {
      "inputs": [],
      "name": "owner",
      "outputs": [
        {
          "internalType": "address",
          "name": "",
          "type": "address"
        }
      ],
      "stateMutability": "view",
      "type": "function"
    },
    {
      "inputs": [],
      "name": "renounceOwnership",
      "outputs": [],
      "stateMutability": "nonpayable",
      "type": "function"
    },
    {
      "inputs": [
        {
          "internalType": "address",
          "name": "admin",
          "type": "address"
        }
      ],
      "name": "revokeAdmin",
      "outputs": [],
      "stateMutability": "nonpayable",
      "type": "function"
    },
    {
      "inputs": [
        {
          "internalType": "bytes4",
          "name": "interfaceId",
          "type": "bytes4"
        }
      ],
      "name": "supportsInterface",
      "outputs": [
        {
          "internalType": "bool",
          "name": "",
          "type": "bool"
        }
      ],
      "stateMutability": "view",
      "type": "function"
    },
    {
      "inputs": [
        {
          "internalType": "uint256",
          "name": "",
          "type": "uint256"
        }
      ],
      "name": "tokenIdToGeocache",
      "outputs": [
        {
          "internalType": "address",
          "name": "creator",
          "type": "address"
        },
        {
          "internalType": "string",
          "name": "tokenURI",
          "type": "string"
        },
        {
          "internalType": "string",
          "name": "dateCreated",
          "type": "string"
        },
        {
          "internalType": "uint256",
          "name": "numItems",
          "type": "uint256"
        },
        {
          "internalType": "bool",
          "name": "isActive",
          "type": "bool"
        },
        {
          "internalType": "string",
          "name": "epicenterLat",
          "type": "string"
        },
        {
          "internalType": "string",
          "name": "epicenterLong",
          "type": "string"
        },
        {
          "internalType": "string",
          "name": "name",
          "type": "string"
        },
        {
          "internalType": "uint256",
          "name": "radius",
          "type": "uint256"
        },
        {
          "internalType": "string",
          "name": "originStory",
          "type": "string"
        }
      ],
      "stateMutability": "view",
      "type": "function"
    },
    {
      "inputs": [
        {
          "internalType": "address",
          "name": "_creatorContract",
          "type": "address"
        },
        {
          "internalType": "uint256",
          "name": "_tokenId",
          "type": "uint256"
        }
      ],
      "name": "tokenURI",
      "outputs": [
        {
          "internalType": "string",
          "name": "",
          "type": "string"
        }
      ],
      "stateMutability": "view",
      "type": "function"
    },
    {
      "inputs": [
        {
          "internalType": "address",
          "name": "newOwner",
          "type": "address"
        }
      ],
      "name": "transferOwnership",
      "outputs": [],
      "stateMutability": "nonpayable",
      "type": "function"
    },
    {
      "inputs": [
        {
          "internalType": "uint256",
          "name": "_tokenId",
          "type": "uint256"
        },
        {
          "internalType": "string",
          "name": "_newTokenURI",
          "type": "string"
        }
      ],
      "name": "updateGeocacheTokenURI",
      "outputs": [],
      "stateMutability": "nonpayable",
      "type": "function"
    },
    {
      "inputs": [
        {
          "internalType": "uint256",
          "name": "_tokenId",
          "type": "uint256"
        }
      ],
      "name": "uri",
      "outputs": [
        {
          "internalType": "string",
          "name": "",
          "type": "string"
        }
      ],
      "stateMutability": "view",
      "type": "function"
    },
    {
      "inputs": [
        {
          "internalType": "address",
          "name": "",
          "type": "address"
        },
        {
          "internalType": "uint256",
          "name": "",
          "type": "uint256"
        }
      ],
      "name": "userToGeocache",
      "outputs": [
        {
          "internalType": "uint256",
          "name": "",
          "type": "uint256"
        }
      ],
      "stateMutability": "view",
      "type": "function"
    }
  ],
  "bytecode": "0x60a060405260006003553480156200001657600080fd5b50604051620025d4380380620025d48339810160408190526200003991620000a6565b620000443362000056565b6001600160a01b0316608052620000d8565b600080546001600160a01b038381166001600160a01b0319831681178455604051919092169283917f8be0079c531659141344cd1fd0a4f28419497f9722a3daafe3b4186f6b6457e09190a35050565b600060208284031215620000b957600080fd5b81516001600160a01b0381168114620000d157600080fd5b9392505050565b6080516124d262000102600039600081816101dc01528181610a4201526119b901526124d26000f3fe608060405234801561001057600080fd5b506004361061014d5760003560e01c80637f49cac0116100c3578063c1361b671161007c578063c1361b6714610328578063cb948fc514610331578063e9dc63751461033a578063efa3c8b41461034d578063f2fde38b1461036d578063fa5ab3791461038057600080fd5b80637f49cac01461028757806380b501b3146102b557806380e604e8146102c85780638da5cb5b146102db578063996f12de146102ec5780639e6e7a0b1461031557600080fd5b80633dae35ce116101155780633dae35ce146101d75780635620749f146102165780636325ce2f146102445780636d73e66914610257578063715018a61461026a5780637a50fc4a1461027257600080fd5b806301ffc9a7146101525780630e89341c1461017a57806324d7806c1461019a5780632d345670146101ad57806331ae450b146101c2575b600080fd5b610165610160366004611cdc565b610393565b60405190151581526020015b60405180910390f35b61018d610188366004611d06565b6103f4565b6040516101719190611d6c565b6101656101a8366004611d9b565b610499565b6101c06101bb366004611d9b565b6104d2565b005b6101ca610530565b6040516101719190611dfa565b6101fe7f000000000000000000000000000000000000000000000000000000000000000081565b6040516001600160a01b039091168152602001610171565b610236610224366004611d06565b60066020526000908152604090205481565b604051908152602001610171565b6101c0610252366004611ec2565b6105de565b6101c0610265366004611d9b565b610631565b6101c0610689565b61027a61069d565b6040516101719190611f38565b610165610295366004611f4b565b600760209081526000928352604080842090915290825290205460ff1681565b6101c06102c3366004612029565b610757565b6102366102d6366004612157565b610b0e565b6000546001600160a01b03166101fe565b6102ff6102fa366004611d06565b610b3f565b6040516101719a99989796959493929190612181565b61027a610323366004611d9b565b610ece565b61023660045481565b61023660035481565b61018d610348366004612157565b610f39565b61036061035b366004611d06565b610fdf565b6040516101719190612286565b6101c061037b366004611d9b565b6110ce565b6101c061038e366004611f4b565b611149565b60006001600160e01b0319821663e9dc637560e01b14806103c457506001600160e01b031982166354c1bcd960e01b145b806103df57506001600160e01b031982166301ffc9a760e01b145b806103ee57506103ee82611788565b92915050565b600081815260056020526040902060010180546060919061041490612299565b80601f016020809104026020016040519081016040528092919081815260200182805461044090612299565b801561048d5780601f106104625761010080835404028352916020019161048d565b820191906000526020600020905b81548152906001019060200180831161047057829003601f168201915b50505050509050919050565b6000816001600160a01b03166104b76000546001600160a01b031690565b6001600160a01b031614806103ee57506103ee6001836117bd565b6104da6117e2565b6104e56001826117bd565b1561052d5760405133906001600160a01b038316907f7c0c3c84c67c85fcac635147348bfe374c24a1a93d0366d1cfe9d8853cbf89d590600090a361052b60018261183c565b505b50565b606061053c6001611851565b6001600160401b0381111561055357610553611e0d565b60405190808252806020026020018201604052801561057c578160200160208202803683370190505b50905060005b61058c6001611851565b8110156105da5761059e60018261185b565b8282815181106105b0576105b06122d3565b6001600160a01b0390921660209283029190910190910152806105d2816122ff565b915050610582565b5090565b600082815260056020526040902080546001600160a01b03163314610616576040516393687c0b60e01b815260040160405180910390fd5b815161062b9060018301906020850190611b97565b50505050565b6106396117e2565b6106446001826117bd565b61052d5760405133906001600160a01b038316907f7e1a1a08d52e4ba0e21554733d66165fd5151f99460116223d9e3a608eec5cb190600090a361052b600182611867565b6106916117e2565b61069b600061187c565b565b606060006004546001600160401b038111156106bb576106bb611e0d565b6040519080825280602002602001820160405280156106e4578160200160208202803683370190505b5090506000805b60035481101561074f576000818152600560205260409020600481015460ff161561073c5781848481518110610723576107236122d3565b602090810291909101015282610738816122ff565b9350505b5080610747816122ff565b9150506106eb565b509092915050565b604080516101608101825233815260208082018b81528284018b9052606083018d905260016080840181905260a084018a905260c0840189905260e084018b905261010084018790526101208401889052610140840186905260035460009081526005845294909420835181546001600160a01b0319166001600160a01b0390911617815590518051939491936107f693928501929190910190611b97565b5060408201518051610812916002840191602090910190611b97565b5060608201516003820155608082015160048201805460ff191691151591909117905560a08201518051610850916005840191602090910190611b97565b5060c0820151805161086c916006840191602090910190611b97565b5060e08201518051610888916007840191602090910190611c17565b5061010082015180516108a5916008840191602090910190611b97565b50610120820151600982015561014082015180516108cd91600a840191602090910190611b97565b50503360008181526008602090815260408083206003805482546001818101855593875285872001558054855260078452828520958552949092528220805460ff19169091179055815491925090610924906122ff565b9091555060048054600090610938906122ff565b90915550604080516001808252818301909252600091602080830190803683370190505090503381600081518110610972576109726122d3565b6001600160a01b0392909216602092830291909101909101526040805160018082528183019092526000918160200160208202803683370190505090506001816000815181106109c4576109c46122d3565b6020908102919091010152604080516001808252818301909252600091816020015b60608152602001906001900390816109e65790505090506040518060200160405280600081525081600081518110610a2057610a206122d3565b6020908102919091010152604051634637423960e11b81526001600160a01b037f00000000000000000000000000000000000000000000000000000000000000001690638c6e847290610a7b90869086908690600401612318565b6000604051808303816000875af1158015610a9a573d6000803e3d6000fd5b505050506040513d6000823e601f3d908101601f19168201604052610ac2919081019061235b565b507f6eb6ad71f0a3b9f2fa6652a096ca4bd0851eb41211391b7aab2e8564794aac2a3386600354604051610af8939291906123eb565b60405180910390a1505050505050505050505050565b60086020528160005260406000208181548110610b2a57600080fd5b90600052602060002001600091509150505481565b600560205260009081526040902080546001820180546001600160a01b039092169291610b6b90612299565b80601f0160208091040260200160405190810160405280929190818152602001828054610b9790612299565b8015610be45780601f10610bb957610100808354040283529160200191610be4565b820191906000526020600020905b815481529060010190602001808311610bc757829003601f168201915b505050505090806002018054610bf990612299565b80601f0160208091040260200160405190810160405280929190818152602001828054610c2590612299565b8015610c725780601f10610c4757610100808354040283529160200191610c72565b820191906000526020600020905b815481529060010190602001808311610c5557829003601f168201915b50505050600383015460048401546005850180549495929460ff909216935090610c9b90612299565b80601f0160208091040260200160405190810160405280929190818152602001828054610cc790612299565b8015610d145780601f10610ce957610100808354040283529160200191610d14565b820191906000526020600020905b815481529060010190602001808311610cf757829003601f168201915b505050505090806006018054610d2990612299565b80601f0160208091040260200160405190810160405280929190818152602001828054610d5590612299565b8015610da25780601f10610d7757610100808354040283529160200191610da2565b820191906000526020600020905b815481529060010190602001808311610d8557829003601f168201915b505050505090806008018054610db790612299565b80601f0160208091040260200160405190810160405280929190818152602001828054610de390612299565b8015610e305780601f10610e0557610100808354040283529160200191610e30565b820191906000526020600020905b815481529060010190602001808311610e1357829003601f168201915b50505050509080600901549080600a018054610e4b90612299565b80601f0160208091040260200160405190810160405280929190818152602001828054610e7790612299565b8015610ec45780601f10610e9957610100808354040283529160200191610ec4565b820191906000526020600020905b815481529060010190602001808311610ea757829003601f168201915b505050505090508a565b6001600160a01b03811660009081526008602090815260409182902080548351818402810184019094528084526060939283018282801561048d57602002820191906000526020600020905b815481526020019060010190808311610f1a5750505050509050919050565b6000818152600560205260409020600101805460609190610f5990612299565b80601f0160208091040260200160405190810160405280929190818152602001828054610f8590612299565b8015610fd25780601f10610fa757610100808354040283529160200191610fd2565b820191906000526020600020905b815481529060010190602001808311610fb557829003601f168201915b5050505050905092915050565b606060056000838152602001908152602001600020600701805480602002602001604051908101604052809291908181526020016000905b828210156110c357838290600052602060002001805461103690612299565b80601f016020809104026020016040519081016040528092919081815260200182805461106290612299565b80156110af5780601f10611084576101008083540402835291602001916110af565b820191906000526020600020905b81548152906001019060200180831161109257829003601f168201915b505050505081526020019060010190611017565b505050509050919050565b6110d66117e2565b6001600160a01b0381166111405760405162461bcd60e51b815260206004820152602660248201527f4f776e61626c653a206e6577206f776e657220697320746865207a65726f206160448201526564647265737360d01b60648201526084015b60405180910390fd5b61052d8161187c565b6111516117e2565b600354821061117357604051634a1850bf60e11b815260040160405180910390fd5b60008281526007602090815260408083206001600160a01b038516845290915290205460ff16156111b757604051634641bb4760e01b815260040160405180910390fd5b60008281526005602090815260408083208151610160810190925280546001600160a01b0316825260018101805492939192918401916111f690612299565b80601f016020809104026020016040519081016040528092919081815260200182805461122290612299565b801561126f5780601f106112445761010080835404028352916020019161126f565b820191906000526020600020905b81548152906001019060200180831161125257829003601f168201915b5050505050815260200160028201805461128890612299565b80601f01602080910402602001604051908101604052809291908181526020018280546112b490612299565b80156113015780601f106112d657610100808354040283529160200191611301565b820191906000526020600020905b8154815290600101906020018083116112e457829003601f168201915b505050918352505060038201546020820152600482015460ff161515604082015260058201805460609092019161133790612299565b80601f016020809104026020016040519081016040528092919081815260200182805461136390612299565b80156113b05780601f10611385576101008083540402835291602001916113b0565b820191906000526020600020905b81548152906001019060200180831161139357829003601f168201915b505050505081526020016006820180546113c990612299565b80601f01602080910402602001604051908101604052809291908181526020018280546113f590612299565b80156114425780601f1061141757610100808354040283529160200191611442565b820191906000526020600020905b81548152906001019060200180831161142557829003601f168201915b5050505050815260200160078201805480602002602001604051908101604052809291908181526020016000905b8282101561151c57838290600052602060002001805461148f90612299565b80601f01602080910402602001604051908101604052809291908181526020018280546114bb90612299565b80156115085780601f106114dd57610100808354040283529160200191611508565b820191906000526020600020905b8154815290600101906020018083116114eb57829003601f168201915b505050505081526020019060010190611470565b50505050815260200160088201805461153490612299565b80601f016020809104026020016040519081016040528092919081815260200182805461156090612299565b80156115ad5780601f10611582576101008083540402835291602001916115ad565b820191906000526020600020905b81548152906001019060200180831161159057829003601f168201915b5050505050815260200160098201548152602001600a820180546115d090612299565b80601f01602080910402602001604051908101604052809291908181526020018280546115fc90612299565b80156116495780601f1061161e57610100808354040283529160200191611649565b820191906000526020600020905b81548152906001019060200180831161162c57829003601f168201915b505050505081525050905080608001516116765760405163d7c0312f60e01b815260040160405180910390fd5b6000838152600660205260408120805491611690836122ff565b909155505060008381526007602090815260408083206001600160a01b03861684528252808320805460ff191660011790556060840151868452600690925290912054036117065760008381526005602052604081206004908101805460ff1916905580549091906117019061241f565b909155505b61171083836118cc565b6001600160a01b0382166000818152600860209081526040808320805460018101825590845282842001879055868352600682529182902054825193845290830186905282820152517f7ed2deb7015f264677924005fd808fb4d654bcd7a3ba0a12ede865d506f962df9181900360600190a1505050565b60006001600160e01b03198216632a9f3abf60e11b14806103ee57506301ffc9a760e01b6001600160e01b03198316146103ee565b6001600160a01b038116600090815260018301602052604081205415155b9392505050565b6000546001600160a01b0316331461069b5760405162461bcd60e51b815260206004820181905260248201527f4f776e61626c653a2063616c6c6572206973206e6f7420746865206f776e65726044820152606401611137565b60006117db836001600160a01b038416611a2b565b60006103ee825490565b60006117db8383611b1e565b60006117db836001600160a01b038416611b48565b600080546001600160a01b038381166001600160a01b0319831681178455604051919092169283917f8be0079c531659141344cd1fd0a4f28419497f9722a3daafe3b4186f6b6457e09190a35050565b604080516001808252818301909252600091602080830190803683370190505090508181600081518110611902576119026122d3565b6001600160a01b0392909216602092830291909101909101526040805160018082528183019092526000918160200160208202803683370190505090508381600081518110611953576119536122d3565b6020908102919091010152604080516001808252818301909252600091816020016020820280368337019050509050600181600081518110611997576119976122d3565b60209081029190910101526040516339b2213760e21b81526001600160a01b037f0000000000000000000000000000000000000000000000000000000000000000169063e6c884dc906119f290869086908690600401612436565b600060405180830381600087803b158015611a0c57600080fd5b505af1158015611a20573d6000803e3d6000fd5b505050505050505050565b60008181526001830160205260408120548015611b14576000611a4f60018361246f565b8554909150600090611a639060019061246f565b9050818114611ac8576000866000018281548110611a8357611a836122d3565b9060005260206000200154905080876000018481548110611aa657611aa66122d3565b6000918252602080832090910192909255918252600188019052604090208390555b8554869080611ad957611ad9612486565b6001900381819060005260206000200160009055905585600101600086815260200190815260200160002060009055600193505050506103ee565b60009150506103ee565b6000826000018281548110611b3557611b356122d3565b9060005260206000200154905092915050565b6000818152600183016020526040812054611b8f575081546001818101845560008481526020808220909301849055845484825282860190935260409020919091556103ee565b5060006103ee565b828054611ba390612299565b90600052602060002090601f016020900481019282611bc55760008555611c0b565b82601f10611bde57805160ff1916838001178555611c0b565b82800160010185558215611c0b579182015b82811115611c0b578251825591602001919060010190611bf0565b506105da929150611c70565b828054828255906000526020600020908101928215611c64579160200282015b82811115611c645782518051611c54918491602090910190611b97565b5091602001919060010190611c37565b506105da929150611c85565b5b808211156105da5760008155600101611c71565b808211156105da576000611c998282611ca2565b50600101611c85565b508054611cae90612299565b6000825580601f10611cbe575050565b601f01602090049060005260206000209081019061052d9190611c70565b600060208284031215611cee57600080fd5b81356001600160e01b0319811681146117db57600080fd5b600060208284031215611d1857600080fd5b5035919050565b6000815180845260005b81811015611d4557602081850181015186830182015201611d29565b81811115611d57576000602083870101525b50601f01601f19169290920160200192915050565b6020815260006117db6020830184611d1f565b80356001600160a01b0381168114611d9657600080fd5b919050565b600060208284031215611dad57600080fd5b6117db82611d7f565b600081518084526020808501945080840160005b83811015611def5781516001600160a01b031687529582019590820190600101611dca565b509495945050505050565b6020815260006117db6020830184611db6565b634e487b7160e01b600052604160045260246000fd5b604051601f8201601f191681016001600160401b0381118282101715611e4b57611e4b611e0d565b604052919050565b600082601f830112611e6457600080fd5b81356001600160401b03811115611e7d57611e7d611e0d565b611e90601f8201601f1916602001611e23565b818152846020838601011115611ea557600080fd5b816020850160208301376000918101602001919091529392505050565b60008060408385031215611ed557600080fd5b8235915060208301356001600160401b03811115611ef257600080fd5b611efe85828601611e53565b9150509250929050565b600081518084526020808501945080840160005b83811015611def57815187529582019590820190600101611f1c565b6020815260006117db6020830184611f08565b60008060408385031215611f5e57600080fd5b82359150611f6e60208401611d7f565b90509250929050565b60006001600160401b03821115611f9057611f90611e0d565b5060051b60200190565b600082601f830112611fab57600080fd5b81356020611fc0611fbb83611f77565b611e23565b82815260059290921b84018101918181019086841115611fdf57600080fd5b8286015b8481101561201e5780356001600160401b038111156120025760008081fd5b6120108986838b0101611e53565b845250918301918301611fe3565b509695505050505050565b60008060008060008060008060006101208a8c03121561204857600080fd5b8935985060208a01356001600160401b038082111561206657600080fd5b6120728d838e01611e53565b995060408c013591508082111561208857600080fd5b6120948d838e01611e53565b985060608c01359150808211156120aa57600080fd5b6120b68d838e01611f9a565b975060808c01359150808211156120cc57600080fd5b6120d88d838e01611e53565b965060a08c01359150808211156120ee57600080fd5b6120fa8d838e01611e53565b955060c08c0135945060e08c013591508082111561211757600080fd5b6121238d838e01611e53565b93506101008c013591508082111561213a57600080fd5b506121478c828d01611e53565b9150509295985092959850929598565b6000806040838503121561216a57600080fd5b61217383611d7f565b946020939093013593505050565b6001600160a01b038b168152610140602082018190526000906121a68382018d611d1f565b905082810360408401526121ba818c611d1f565b9050896060840152881515608084015282810360a08401526121dc8189611d1f565b905082810360c08401526121f08188611d1f565b905082810360e08401526122048187611d1f565b9050846101008401528281036101208401526122208185611d1f565b9d9c50505050505050505050505050565b600081518084526020808501808196508360051b8101915082860160005b85811015612279578284038952612267848351611d1f565b9885019893509084019060010161224f565b5091979650505050505050565b6020815260006117db6020830184612231565b600181811c908216806122ad57607f821691505b6020821081036122cd57634e487b7160e01b600052602260045260246000fd5b50919050565b634e487b7160e01b600052603260045260246000fd5b634e487b7160e01b600052601160045260246000fd5b600060018201612311576123116122e9565b5060010190565b60608152600061232b6060830186611db6565b828103602084015261233d8186611f08565b905082810360408401526123518185612231565b9695505050505050565b6000602080838503121561236e57600080fd5b82516001600160401b0381111561238457600080fd5b8301601f8101851361239557600080fd5b80516123a3611fbb82611f77565b81815260059190911b820183019083810190878311156123c257600080fd5b928401925b828410156123e0578351825292840192908401906123c7565b979650505050505050565b6001600160a01b038416815260606020820181905260009061240f90830185611d1f565b9050826040830152949350505050565b60008161242e5761242e6122e9565b506000190190565b6060815260006124496060830186611db6565b828103602084015261245b8186611f08565b905082810360408401526123518185611f08565b600082821015612481576124816122e9565b500390565b634e487b7160e01b600052603160045260246000fdfea2646970667358221220f3b471752386966f81fd2cd9af1a6fe5aa1e293c370e6f34c523d7d099bacada64736f6c634300080d0033",
  "linkReferences": {},
  "deployedLinkReferences": {}
}