{
  "_format": "hh-sol-artifact-1",
  "contractName": "Geocache",
  "sourceName": "contracts/Geocache.sol",
  "abi": [
    {
      "inputs": [
        {
          "internalType": "address",
          "name": "_creatorContract",
          "type": "address"
        }
      ],
      "stateMutability": "nonpayable",
      "type": "constructor"
    },
    {
      "inputs": [],
      "name": "NonExistentToken",
      "type": "error"
    },
    {
      "inputs": [],
      "name": "NotActiveGeocache",
      "type": "error"
    },
    {
      "inputs": [],
      "name": "NotCreator",
      "type": "error"
    },
    {
      "inputs": [],
      "name": "UserAlreadyFound",
      "type": "error"
    },
    {
      "anonymous": false,
      "inputs": [
        {
          "indexed": true,
          "internalType": "address",
          "name": "account",
          "type": "address"
        },
        {
          "indexed": true,
          "internalType": "address",
          "name": "sender",
          "type": "address"
        }
      ],
      "name": "AdminApproved",
      "type": "event"
    },
    {
      "anonymous": false,
      "inputs": [
        {
          "indexed": true,
          "internalType": "address",
          "name": "account",
          "type": "address"
        },
        {
          "indexed": true,
          "internalType": "address",
          "name": "sender",
          "type": "address"
        }
      ],
      "name": "AdminRevoked",
      "type": "event"
    },
    {
      "anonymous": false,
      "inputs": [
        {
          "indexed": false,
          "internalType": "address",
          "name": "creator",
          "type": "address"
        },
        {
          "indexed": false,
          "internalType": "string",
          "name": "name",
          "type": "string"
        },
        {
          "indexed": false,
          "internalType": "uint256",
          "name": "numItems",
          "type": "uint256"
        }
      ],
      "name": "GeocacheCreated",
      "type": "event"
    },
    {
      "anonymous": false,
      "inputs": [
        {
          "indexed": true,
          "internalType": "address",
          "name": "previousOwner",
          "type": "address"
        },
        {
          "indexed": true,
          "internalType": "address",
          "name": "newOwner",
          "type": "address"
        }
      ],
      "name": "OwnershipTransferred",
      "type": "event"
    },
    {
      "inputs": [
        {
          "internalType": "address",
          "name": "admin",
          "type": "address"
        }
      ],
      "name": "approveAdmin",
      "outputs": [],
      "stateMutability": "nonpayable",
      "type": "function"
    },
    {
      "inputs": [],
      "name": "creatorContract",
      "outputs": [
        {
          "internalType": "address",
          "name": "",
          "type": "address"
        }
      ],
      "stateMutability": "view",
      "type": "function"
    },
    {
      "inputs": [
        {
          "internalType": "uint256",
          "name": "",
          "type": "uint256"
        }
      ],
      "name": "geocacheToNumFound",
      "outputs": [
        {
          "internalType": "uint256",
          "name": "",
          "type": "uint256"
        }
      ],
      "stateMutability": "view",
      "type": "function"
    },
    {
      "inputs": [],
      "name": "getAdmins",
      "outputs": [
        {
          "internalType": "address[]",
          "name": "admins",
          "type": "address[]"
        }
      ],
      "stateMutability": "view",
      "type": "function"
    },
    {
      "inputs": [],
      "name": "getAllGeocaches",
      "outputs": [
        {
          "components": [
            {
              "internalType": "address",
              "name": "creator",
              "type": "address"
            },
            {
              "internalType": "string",
              "name": "tokenURI",
              "type": "string"
            },
            {
              "internalType": "string",
              "name": "dateCreated",
              "type": "string"
            },
            {
              "internalType": "uint256",
              "name": "numItems",
              "type": "uint256"
            },
            {
              "internalType": "bool",
              "name": "isActive",
              "type": "bool"
            },
            {
              "internalType": "string",
              "name": "epicenterLat",
              "type": "string"
            },
            {
              "internalType": "string",
              "name": "epicenterLong",
              "type": "string"
            },
            {
              "internalType": "string[]",
              "name": "itemGeolocations",
              "type": "string[]"
            },
            {
              "internalType": "string",
              "name": "name",
              "type": "string"
            },
            {
              "internalType": "uint256",
              "name": "radius",
              "type": "uint256"
            }
          ],
          "internalType": "struct Geocache.GeocacheInstance[]",
          "name": "",
          "type": "tuple[]"
        }
      ],
      "stateMutability": "view",
      "type": "function"
    },
    {
      "inputs": [
        {
          "internalType": "uint256",
          "name": "geocacheIndex",
          "type": "uint256"
        }
      ],
      "name": "getGeolocationsOfGeocache",
      "outputs": [
        {
          "internalType": "string[]",
          "name": "",
          "type": "string[]"
        }
      ],
      "stateMutability": "view",
      "type": "function"
    },
    {
      "inputs": [
        {
          "internalType": "uint256",
          "name": "",
          "type": "uint256"
        },
        {
          "internalType": "address",
          "name": "",
          "type": "address"
        }
      ],
      "name": "hasMintedTokenId",
      "outputs": [
        {
          "internalType": "bool",
          "name": "",
          "type": "bool"
        }
      ],
      "stateMutability": "view",
      "type": "function"
    },
    {
      "inputs": [
        {
          "internalType": "address",
          "name": "admin",
          "type": "address"
        }
      ],
      "name": "isAdmin",
      "outputs": [
        {
          "internalType": "bool",
          "name": "",
          "type": "bool"
        }
      ],
      "stateMutability": "view",
      "type": "function"
    },
    {
      "inputs": [
        {
          "internalType": "uint256",
          "name": "_geocacheId",
          "type": "uint256"
        },
        {
          "internalType": "address",
          "name": "_user",
          "type": "address"
        }
      ],
      "name": "mintItemInGeocache",
      "outputs": [],
      "stateMutability": "nonpayable",
      "type": "function"
    },
    {
      "inputs": [
        {
          "internalType": "uint256",
          "name": "_numItems",
          "type": "uint256"
        },
        {
          "internalType": "string",
          "name": "_tokenURI",
          "type": "string"
        },
        {
          "internalType": "string",
          "name": "_dateCreated",
          "type": "string"
        },
        {
          "internalType": "string[]",
          "name": "_itemGeolocations",
          "type": "string[]"
        },
        {
          "internalType": "string",
          "name": "_epicenterLat",
          "type": "string"
        },
        {
          "internalType": "string",
          "name": "_epicenterLong",
          "type": "string"
        },
        {
          "internalType": "uint256",
          "name": "_radius",
          "type": "uint256"
        },
        {
          "internalType": "string",
          "name": "_name",
          "type": "string"
        }
      ],
      "name": "newGeocache",
      "outputs": [],
      "stateMutability": "nonpayable",
      "type": "function"
    },
    {
      "inputs": [],
      "name": "numGeocaches",
      "outputs": [
        {
          "internalType": "uint256",
          "name": "",
          "type": "uint256"
        }
      ],
      "stateMutability": "view",
      "type": "function"
    },
    {
      "inputs": [],
      "name": "owner",
      "outputs": [
        {
          "internalType": "address",
          "name": "",
          "type": "address"
        }
      ],
      "stateMutability": "view",
      "type": "function"
    },
    {
      "inputs": [],
      "name": "renounceOwnership",
      "outputs": [],
      "stateMutability": "nonpayable",
      "type": "function"
    },
    {
      "inputs": [
        {
          "internalType": "address",
          "name": "admin",
          "type": "address"
        }
      ],
      "name": "revokeAdmin",
      "outputs": [],
      "stateMutability": "nonpayable",
      "type": "function"
    },
    {
      "inputs": [
        {
          "internalType": "bytes4",
          "name": "interfaceId",
          "type": "bytes4"
        }
      ],
      "name": "supportsInterface",
      "outputs": [
        {
          "internalType": "bool",
          "name": "",
          "type": "bool"
        }
      ],
      "stateMutability": "view",
      "type": "function"
    },
    {
      "inputs": [
        {
          "internalType": "uint256",
          "name": "",
          "type": "uint256"
        }
      ],
      "name": "tokenIdToGeocache",
      "outputs": [
        {
          "internalType": "address",
          "name": "creator",
          "type": "address"
        },
        {
          "internalType": "string",
          "name": "tokenURI",
          "type": "string"
        },
        {
          "internalType": "string",
          "name": "dateCreated",
          "type": "string"
        },
        {
          "internalType": "uint256",
          "name": "numItems",
          "type": "uint256"
        },
        {
          "internalType": "bool",
          "name": "isActive",
          "type": "bool"
        },
        {
          "internalType": "string",
          "name": "epicenterLat",
          "type": "string"
        },
        {
          "internalType": "string",
          "name": "epicenterLong",
          "type": "string"
        },
        {
          "internalType": "string",
          "name": "name",
          "type": "string"
        },
        {
          "internalType": "uint256",
          "name": "radius",
          "type": "uint256"
        }
      ],
      "stateMutability": "view",
      "type": "function"
    },
    {
      "inputs": [
        {
          "internalType": "address",
          "name": "_creatorContract",
          "type": "address"
        },
        {
          "internalType": "uint256",
          "name": "_tokenId",
          "type": "uint256"
        }
      ],
      "name": "tokenURI",
      "outputs": [
        {
          "internalType": "string",
          "name": "",
          "type": "string"
        }
      ],
      "stateMutability": "view",
      "type": "function"
    },
    {
      "inputs": [
        {
          "internalType": "address",
          "name": "newOwner",
          "type": "address"
        }
      ],
      "name": "transferOwnership",
      "outputs": [],
      "stateMutability": "nonpayable",
      "type": "function"
    },
    {
      "inputs": [
        {
          "internalType": "uint256",
          "name": "_tokenId",
          "type": "uint256"
        },
        {
          "internalType": "string",
          "name": "_newTokenURI",
          "type": "string"
        }
      ],
      "name": "updateGeocacheTokenURI",
      "outputs": [],
      "stateMutability": "nonpayable",
      "type": "function"
    }
  ],
  "bytecode": "0x60a060405260006003553480156200001657600080fd5b50604051620027e0380380620027e08339810160408190526200003991620000a6565b620000443362000056565b6001600160a01b0316608052620000d8565b600080546001600160a01b038381166001600160a01b0319831681178455604051919092169283917f8be0079c531659141344cd1fd0a4f28419497f9722a3daafe3b4186f6b6457e09190a35050565b600060208284031215620000b957600080fd5b81516001600160a01b0381168114620000d157600080fd5b9392505050565b6080516126d7620001096000396000818161019001528181611016015281816110e30152611ad301526126d76000f3fe608060405234801561001057600080fd5b50600436106101215760003560e01c80637f49cac0116100ad578063cb948fc511610071578063cb948fc5146102b5578063e9dc6375146102be578063efa3c8b4146102de578063f2fde38b146102fe578063fa5ab3791461031157600080fd5b80637f49cac01461022657806383f4e0a8146102545780638da5cb5b14610269578063996f12de1461027a578063aee0c704146102a257600080fd5b80633dae35ce116100f45780633dae35ce1461018b5780635620749f146101ca5780636325ce2f146101f85780636d73e6691461020b578063715018a61461021e57600080fd5b806301ffc9a71461012657806324d7806c1461014e5780632d3456701461016157806331ae450b14610176575b600080fd5b610139610134366004611e17565b610324565b60405190151581526020015b60405180910390f35b61013961015c366004611e5d565b6103a0565b61017461016f366004611e5d565b6103d9565b005b61017e610437565b6040516101459190611ebc565b6101b27f000000000000000000000000000000000000000000000000000000000000000081565b6040516001600160a01b039091168152602001610145565b6101ea6101d8366004611ecf565b60056020526000908152604090205481565b604051908152602001610145565b610174610206366004611f9d565b6104e5565b610174610219366004611e5d565b610538565b610174610590565b610139610234366004611fe3565b600660209081526000928352604080842090915290825290205460ff1681565b61025c6105a4565b60405161014591906120b1565b6000546001600160a01b03166101b2565b61028d610288366004611ecf565b610aa7565b604051610145999897969594939291906121e5565b6101746102b0366004612332565b610da8565b6101ea60035481565b6102d16102cc36600461243b565b6110df565b6040516101459190612465565b6102f16102ec366004611ecf565b6111c1565b6040516101459190612478565b61017461030c366004611e5d565b6112b0565b61017461031f366004611fe3565b61132b565b60006001600160e01b0319821663e9dc637560e01b148061035557506001600160e01b031982166354c1bcd960e01b145b8061037057506001600160e01b03198216636cdb3d1360e11b145b8061038b57506001600160e01b031982166301ffc9a760e01b145b8061039a575061039a8261185d565b92915050565b6000816001600160a01b03166103be6000546001600160a01b031690565b6001600160a01b0316148061039a575061039a600183611892565b6103e16118b7565b6103ec600182611892565b156104345760405133906001600160a01b038316907f7c0c3c84c67c85fcac635147348bfe374c24a1a93d0366d1cfe9d8853cbf89d590600090a3610432600182611911565b505b50565b60606104436001611926565b6001600160401b0381111561045a5761045a611ee8565b604051908082528060200260200182016040528015610483578160200160208202803683370190505b50905060005b6104936001611926565b8110156104e1576104a5600182611930565b8282815181106104b7576104b761248b565b6001600160a01b0390921660209283029190910190910152806104d9816124b7565b915050610489565b5090565b600082815260046020526040902080546001600160a01b0316331461051d576040516393687c0b60e01b815260040160405180910390fd5b81516105329060018301906020850190611cd2565b50505050565b6105406118b7565b61054b600182611892565b6104345760405133906001600160a01b038316907f7e1a1a08d52e4ba0e21554733d66165fd5151f99460116223d9e3a608eec5cb190600090a361043260018261193c565b6105986118b7565b6105a26000611951565b565b606060006003546001600160401b038111156105c2576105c2611ee8565b60405190808252806020026020018201604052801561065457816020015b61064160405180610140016040528060006001600160a01b0316815260200160608152602001606081526020016000815260200160001515815260200160608152602001606081526020016060815260200160608152602001600081525090565b8152602001906001900390816105e05790505b50905060005b600354811015610aa1576000818152600460209081526040918290208251610140810190935280546001600160a01b03168352600181018054919392849290840191906106a6906124d0565b80601f01602080910402602001604051908101604052809291908181526020018280546106d2906124d0565b801561071f5780601f106106f45761010080835404028352916020019161071f565b820191906000526020600020905b81548152906001019060200180831161070257829003601f168201915b50505050508152602001600282018054610738906124d0565b80601f0160208091040260200160405190810160405280929190818152602001828054610764906124d0565b80156107b15780601f10610786576101008083540402835291602001916107b1565b820191906000526020600020905b81548152906001019060200180831161079457829003601f168201915b505050918352505060038201546020820152600482015460ff16151560408201526005820180546060909201916107e7906124d0565b80601f0160208091040260200160405190810160405280929190818152602001828054610813906124d0565b80156108605780601f1061083557610100808354040283529160200191610860565b820191906000526020600020905b81548152906001019060200180831161084357829003601f168201915b50505050508152602001600682018054610879906124d0565b80601f01602080910402602001604051908101604052809291908181526020018280546108a5906124d0565b80156108f25780601f106108c7576101008083540402835291602001916108f2565b820191906000526020600020905b8154815290600101906020018083116108d557829003601f168201915b5050505050815260200160078201805480602002602001604051908101604052809291908181526020016000905b828210156109cc57838290600052602060002001805461093f906124d0565b80601f016020809104026020016040519081016040528092919081815260200182805461096b906124d0565b80156109b85780601f1061098d576101008083540402835291602001916109b8565b820191906000526020600020905b81548152906001019060200180831161099b57829003601f168201915b505050505081526020019060010190610920565b5050505081526020016008820180546109e4906124d0565b80601f0160208091040260200160405190810160405280929190818152602001828054610a10906124d0565b8015610a5d5780601f10610a3257610100808354040283529160200191610a5d565b820191906000526020600020905b815481529060010190602001808311610a4057829003601f168201915b50505050508152602001600982015481525050838381518110610a8257610a8261248b565b6020026020010181905250508080610a99906124b7565b91505061065a565b50919050565b600460205260009081526040902080546001820180546001600160a01b039092169291610ad3906124d0565b80601f0160208091040260200160405190810160405280929190818152602001828054610aff906124d0565b8015610b4c5780601f10610b2157610100808354040283529160200191610b4c565b820191906000526020600020905b815481529060010190602001808311610b2f57829003601f168201915b505050505090806002018054610b61906124d0565b80601f0160208091040260200160405190810160405280929190818152602001828054610b8d906124d0565b8015610bda5780601f10610baf57610100808354040283529160200191610bda565b820191906000526020600020905b815481529060010190602001808311610bbd57829003601f168201915b50505050600383015460048401546005850180549495929460ff909216935090610c03906124d0565b80601f0160208091040260200160405190810160405280929190818152602001828054610c2f906124d0565b8015610c7c5780601f10610c5157610100808354040283529160200191610c7c565b820191906000526020600020905b815481529060010190602001808311610c5f57829003601f168201915b505050505090806006018054610c91906124d0565b80601f0160208091040260200160405190810160405280929190818152602001828054610cbd906124d0565b8015610d0a5780601f10610cdf57610100808354040283529160200191610d0a565b820191906000526020600020905b815481529060010190602001808311610ced57829003601f168201915b505050505090806008018054610d1f906124d0565b80601f0160208091040260200160405190810160405280929190818152602001828054610d4b906124d0565b8015610d985780601f10610d6d57610100808354040283529160200191610d98565b820191906000526020600020905b815481529060010190602001808311610d7b57829003601f168201915b5050505050908060090154905089565b604080516101408101825233815260208082018a81528284018a9052606083018c905260016080840181905260a0840189905260c0840188905260e084018a90526101008401869052610120840187905260035460009081526004845294909420835181546001600160a01b0319166001600160a01b039091161781559051805193949193610e3f93928501929190910190611cd2565b5060408201518051610e5b916002840191602090910190611cd2565b5060608201516003820155608082015160048201805460ff191691151591909117905560a08201518051610e99916005840191602090910190611cd2565b5060c08201518051610eb5916006840191602090910190611cd2565b5060e08201518051610ed1916007840191602090910190611d52565b506101008201518051610eee916008840191602090910190611cd2565b506101208201518160090155905050600360008154610f0c906124b7565b90915550604080516001808252818301909252600091602080830190803683370190505090503381600081518110610f4657610f4661248b565b6001600160a01b039290921660209283029190910190910152604080516001808252818301909252600091816020016020820280368337019050509050600181600081518110610f9857610f9861248b565b6020908102919091010152604080516001808252818301909252600091816020015b6060815260200190600190039081610fba5790505090506040518060200160405280600081525081600081518110610ff457610ff461248b565b6020908102919091010152604051634637423960e11b81526001600160a01b037f00000000000000000000000000000000000000000000000000000000000000001690638c6e84729061104f90869086908690600401612534565b6000604051808303816000875af115801561106e573d6000803e3d6000fd5b505050506040513d6000823e601f3d908101601f191682016040526110969190810190612577565b507f6eb6ad71f0a3b9f2fa6652a096ca4bd0851eb41211391b7aab2e8564794aac2a33858d6040516110ca93929190612607565b60405180910390a15050505050505050505050565b60607f00000000000000000000000000000000000000000000000000000000000000006001600160a01b0316836001600160a01b03161461111f57600080fd5b6000828152600460205260409020600101805461113b906124d0565b80601f0160208091040260200160405190810160405280929190818152602001828054611167906124d0565b80156111b45780601f10611189576101008083540402835291602001916111b4565b820191906000526020600020905b81548152906001019060200180831161119757829003601f168201915b5050505050905092915050565b606060046000838152602001908152602001600020600701805480602002602001604051908101604052809291908181526020016000905b828210156112a5578382906000526020600020018054611218906124d0565b80601f0160208091040260200160405190810160405280929190818152602001828054611244906124d0565b80156112915780601f1061126657610100808354040283529160200191611291565b820191906000526020600020905b81548152906001019060200180831161127457829003601f168201915b5050505050815260200190600101906111f9565b505050509050919050565b6112b86118b7565b6001600160a01b0381166113225760405162461bcd60e51b815260206004820152602660248201527f4f776e61626c653a206e6577206f776e657220697320746865207a65726f206160448201526564647265737360d01b60648201526084015b60405180910390fd5b61043481611951565b6113336118b7565b600354821061135557604051634a1850bf60e11b815260040160405180910390fd5b6113606003546119a1565b60008281526006602090815260408083206001600160a01b038516845290915290205460ff16156113a457604051634641bb4760e01b815260040160405180910390fd5b60008281526004602090815260408083208151610140810190925280546001600160a01b0316825260018101805492939192918401916113e3906124d0565b80601f016020809104026020016040519081016040528092919081815260200182805461140f906124d0565b801561145c5780601f106114315761010080835404028352916020019161145c565b820191906000526020600020905b81548152906001019060200180831161143f57829003601f168201915b50505050508152602001600282018054611475906124d0565b80601f01602080910402602001604051908101604052809291908181526020018280546114a1906124d0565b80156114ee5780601f106114c3576101008083540402835291602001916114ee565b820191906000526020600020905b8154815290600101906020018083116114d157829003601f168201915b505050918352505060038201546020820152600482015460ff1615156040820152600582018054606090920191611524906124d0565b80601f0160208091040260200160405190810160405280929190818152602001828054611550906124d0565b801561159d5780601f106115725761010080835404028352916020019161159d565b820191906000526020600020905b81548152906001019060200180831161158057829003601f168201915b505050505081526020016006820180546115b6906124d0565b80601f01602080910402602001604051908101604052809291908181526020018280546115e2906124d0565b801561162f5780601f106116045761010080835404028352916020019161162f565b820191906000526020600020905b81548152906001019060200180831161161257829003601f168201915b5050505050815260200160078201805480602002602001604051908101604052809291908181526020016000905b8282101561170957838290600052602060002001805461167c906124d0565b80601f01602080910402602001604051908101604052809291908181526020018280546116a8906124d0565b80156116f55780601f106116ca576101008083540402835291602001916116f5565b820191906000526020600020905b8154815290600101906020018083116116d857829003601f168201915b50505050508152602001906001019061165d565b505050508152602001600882018054611721906124d0565b80601f016020809104026020016040519081016040528092919081815260200182805461174d906124d0565b801561179a5780601f1061176f5761010080835404028352916020019161179a565b820191906000526020600020905b81548152906001019060200180831161177d57829003601f168201915b50505050508152602001600982015481525050905080608001516117d15760405163d7c0312f60e01b815260040160405180910390fd5b60008381526005602052604081208054916117eb836124b7565b909155505060008381526006602090815260408083206001600160a01b03861684528252808320805460ff1916600117905560608401518684526005909252909120540361184e57600083815260046020819052604090912001805460ff191690555b61185883836119e6565b505050565b60006001600160e01b03198216632a9f3abf60e11b148061039a57506301ffc9a760e01b6001600160e01b031983161461039a565b6001600160a01b038116600090815260018301602052604081205415155b9392505050565b6000546001600160a01b031633146105a25760405162461bcd60e51b815260206004820181905260248201527f4f776e61626c653a2063616c6c6572206973206e6f7420746865206f776e65726044820152606401611319565b60006118b0836001600160a01b038416611b45565b600061039a825490565b60006118b08383611c38565b60006118b0836001600160a01b038416611c62565b600080546001600160a01b038381166001600160a01b0319831681178455604051919092169283917f8be0079c531659141344cd1fd0a4f28419497f9722a3daafe3b4186f6b6457e09190a35050565b610434816040516024016119b791815260200190565b60408051601f198184030181529190526020810180516001600160e01b031663f82c50f160e01b179052611cb1565b604080516001808252818301909252600091602080830190803683370190505090508181600081518110611a1c57611a1c61248b565b6001600160a01b0392909216602092830291909101909101526040805160018082528183019092526000918160200160208202803683370190505090508381600081518110611a6d57611a6d61248b565b6020908102919091010152604080516001808252818301909252600091816020016020820280368337019050509050600181600081518110611ab157611ab161248b565b60209081029190910101526040516339b2213760e21b81526001600160a01b037f0000000000000000000000000000000000000000000000000000000000000000169063e6c884dc90611b0c9086908690869060040161263b565b600060405180830381600087803b158015611b2657600080fd5b505af1158015611b3a573d6000803e3d6000fd5b505050505050505050565b60008181526001830160205260408120548015611c2e576000611b69600183612674565b8554909150600090611b7d90600190612674565b9050818114611be2576000866000018281548110611b9d57611b9d61248b565b9060005260206000200154905080876000018481548110611bc057611bc061248b565b6000918252602080832090910192909255918252600188019052604090208390555b8554869080611bf357611bf361268b565b60019003818190600052602060002001600090559055856001016000868152602001908152602001600020600090556001935050505061039a565b600091505061039a565b6000826000018281548110611c4f57611c4f61248b565b9060005260206000200154905092915050565b6000818152600183016020526040812054611ca95750815460018181018455600084815260208082209093018490558454848252828601909352604090209190915561039a565b50600061039a565b80516a636f6e736f6c652e6c6f67602083016000808483855afa5050505050565b828054611cde906124d0565b90600052602060002090601f016020900481019282611d005760008555611d46565b82601f10611d1957805160ff1916838001178555611d46565b82800160010185558215611d46579182015b82811115611d46578251825591602001919060010190611d2b565b506104e1929150611dab565b828054828255906000526020600020908101928215611d9f579160200282015b82811115611d9f5782518051611d8f918491602090910190611cd2565b5091602001919060010190611d72565b506104e1929150611dc0565b5b808211156104e15760008155600101611dac565b808211156104e1576000611dd48282611ddd565b50600101611dc0565b508054611de9906124d0565b6000825580601f10611df9575050565b601f0160209004906000526020600020908101906104349190611dab565b600060208284031215611e2957600080fd5b81356001600160e01b0319811681146118b057600080fd5b80356001600160a01b0381168114611e5857600080fd5b919050565b600060208284031215611e6f57600080fd5b6118b082611e41565b600081518084526020808501945080840160005b83811015611eb15781516001600160a01b031687529582019590820190600101611e8c565b509495945050505050565b6020815260006118b06020830184611e78565b600060208284031215611ee157600080fd5b5035919050565b634e487b7160e01b600052604160045260246000fd5b604051601f8201601f191681016001600160401b0381118282101715611f2657611f26611ee8565b604052919050565b600082601f830112611f3f57600080fd5b81356001600160401b03811115611f5857611f58611ee8565b611f6b601f8201601f1916602001611efe565b818152846020838601011115611f8057600080fd5b816020850160208301376000918101602001919091529392505050565b60008060408385031215611fb057600080fd5b8235915060208301356001600160401b03811115611fcd57600080fd5b611fd985828601611f2e565b9150509250929050565b60008060408385031215611ff657600080fd5b8235915061200660208401611e41565b90509250929050565b6000815180845260005b8181101561203557602081850181015186830182015201612019565b81811115612047576000602083870101525b50601f01601f19169290920160200192915050565b600081518084526020808501808196508360051b8101915082860160005b858110156120a457828403895261209284835161200f565b9885019893509084019060010161207a565b5091979650505050505050565b60006020808301818452808551808352604092508286019150828160051b87010184880160005b838110156121d757888303603f19018552815180516001600160a01b0316845261014088820151818a8701526121108287018261200f565b9150508782015185820389870152612128828261200f565b91505060608083015181870152506080808301516121498288018215159052565b505060a08083015186830382880152612162838261200f565b9250505060c0808301518683038288015261217d838261200f565b9250505060e08083015186830382880152612198838261205c565b9250505061010080830151868303828801526121b4838261200f565b6101209485015197909401969096525050948701949250908601906001016120d8565b509098975050505050505050565b6001600160a01b038a1681526101206020820181905260009061220a8382018c61200f565b9050828103604084015261221e818b61200f565b9050886060840152871515608084015282810360a0840152612240818861200f565b905082810360c0840152612254818761200f565b905082810360e0840152612268818661200f565b915050826101008301529a9950505050505050505050565b60006001600160401b0382111561229957612299611ee8565b5060051b60200190565b600082601f8301126122b457600080fd5b813560206122c96122c483612280565b611efe565b82815260059290921b840181019181810190868411156122e857600080fd5b8286015b848110156123275780356001600160401b0381111561230b5760008081fd5b6123198986838b0101611f2e565b8452509183019183016122ec565b509695505050505050565b600080600080600080600080610100898b03121561234f57600080fd5b8835975060208901356001600160401b038082111561236d57600080fd5b6123798c838d01611f2e565b985060408b013591508082111561238f57600080fd5b61239b8c838d01611f2e565b975060608b01359150808211156123b157600080fd5b6123bd8c838d016122a3565b965060808b01359150808211156123d357600080fd5b6123df8c838d01611f2e565b955060a08b01359150808211156123f557600080fd5b6124018c838d01611f2e565b945060c08b0135935060e08b013591508082111561241e57600080fd5b5061242b8b828c01611f2e565b9150509295985092959890939650565b6000806040838503121561244e57600080fd5b61245783611e41565b946020939093013593505050565b6020815260006118b0602083018461200f565b6020815260006118b0602083018461205c565b634e487b7160e01b600052603260045260246000fd5b634e487b7160e01b600052601160045260246000fd5b6000600182016124c9576124c96124a1565b5060010190565b600181811c908216806124e457607f821691505b602082108103610aa157634e487b7160e01b600052602260045260246000fd5b600081518084526020808501945080840160005b83811015611eb157815187529582019590820190600101612518565b6060815260006125476060830186611e78565b82810360208401526125598186612504565b9050828103604084015261256d818561205c565b9695505050505050565b6000602080838503121561258a57600080fd5b82516001600160401b038111156125a057600080fd5b8301601f810185136125b157600080fd5b80516125bf6122c482612280565b81815260059190911b820183019083810190878311156125de57600080fd5b928401925b828410156125fc578351825292840192908401906125e3565b979650505050505050565b6001600160a01b038416815260606020820181905260009061262b9083018561200f565b9050826040830152949350505050565b60608152600061264e6060830186611e78565b82810360208401526126608186612504565b9050828103604084015261256d8185612504565b600082821015612686576126866124a1565b500390565b634e487b7160e01b600052603160045260246000fdfea2646970667358221220421d6483179f6ff311e5baf453ca134c2b0cd461ed411f7c01cd7a5cbd35843564736f6c634300080d0033",
  "linkReferences": {},
  "deployedLinkReferences": {}
}