{
  "_format": "hh-sol-artifact-1",
  "contractName": "Geocache",
  "sourceName": "contracts/Geocache.sol",
  "abi": [
    {
      "inputs": [
        {
          "internalType": "address",
          "name": "_creatorContract",
          "type": "address"
        }
      ],
      "stateMutability": "nonpayable",
      "type": "constructor"
    },
    {
      "inputs": [],
      "name": "NonExistentToken",
      "type": "error"
    },
    {
      "inputs": [],
      "name": "NotActiveGeocache",
      "type": "error"
    },
    {
      "inputs": [],
      "name": "NotCreator",
      "type": "error"
    },
    {
      "inputs": [],
      "name": "UserAlreadyFound",
      "type": "error"
    },
    {
      "anonymous": false,
      "inputs": [
        {
          "indexed": true,
          "internalType": "address",
          "name": "account",
          "type": "address"
        },
        {
          "indexed": true,
          "internalType": "address",
          "name": "sender",
          "type": "address"
        }
      ],
      "name": "AdminApproved",
      "type": "event"
    },
    {
      "anonymous": false,
      "inputs": [
        {
          "indexed": true,
          "internalType": "address",
          "name": "account",
          "type": "address"
        },
        {
          "indexed": true,
          "internalType": "address",
          "name": "sender",
          "type": "address"
        }
      ],
      "name": "AdminRevoked",
      "type": "event"
    },
    {
      "anonymous": false,
      "inputs": [
        {
          "indexed": false,
          "internalType": "address",
          "name": "creator",
          "type": "address"
        },
        {
          "indexed": false,
          "internalType": "string",
          "name": "name",
          "type": "string"
        },
        {
          "indexed": false,
          "internalType": "uint256",
          "name": "numItems",
          "type": "uint256"
        }
      ],
      "name": "GeocacheCreated",
      "type": "event"
    },
    {
      "anonymous": false,
      "inputs": [
        {
          "indexed": false,
          "internalType": "address",
          "name": "receiver",
          "type": "address"
        },
        {
          "indexed": false,
          "internalType": "uint256",
          "name": "geocacheIndex",
          "type": "uint256"
        },
        {
          "indexed": false,
          "internalType": "uint256",
          "name": "itemIndex",
          "type": "uint256"
        }
      ],
      "name": "GeocacheItemMinted",
      "type": "event"
    },
    {
      "anonymous": false,
      "inputs": [
        {
          "indexed": true,
          "internalType": "address",
          "name": "previousOwner",
          "type": "address"
        },
        {
          "indexed": true,
          "internalType": "address",
          "name": "newOwner",
          "type": "address"
        }
      ],
      "name": "OwnershipTransferred",
      "type": "event"
    },
    {
      "inputs": [
        {
          "internalType": "address",
          "name": "admin",
          "type": "address"
        }
      ],
      "name": "approveAdmin",
      "outputs": [],
      "stateMutability": "nonpayable",
      "type": "function"
    },
    {
      "inputs": [],
      "name": "creatorContract",
      "outputs": [
        {
          "internalType": "address",
          "name": "",
          "type": "address"
        }
      ],
      "stateMutability": "view",
      "type": "function"
    },
    {
      "inputs": [
        {
          "internalType": "uint256",
          "name": "",
          "type": "uint256"
        }
      ],
      "name": "geocacheToNumFound",
      "outputs": [
        {
          "internalType": "uint256",
          "name": "",
          "type": "uint256"
        }
      ],
      "stateMutability": "view",
      "type": "function"
    },
    {
      "inputs": [],
      "name": "getAdmins",
      "outputs": [
        {
          "internalType": "address[]",
          "name": "admins",
          "type": "address[]"
        }
      ],
      "stateMutability": "view",
      "type": "function"
    },
    {
      "inputs": [],
      "name": "getAllActiveGeocacheIDs",
      "outputs": [
        {
          "internalType": "uint256[]",
          "name": "",
          "type": "uint256[]"
        }
      ],
      "stateMutability": "view",
      "type": "function"
    },
    {
      "inputs": [
        {
          "internalType": "uint256",
          "name": "geocacheIndex",
          "type": "uint256"
        }
      ],
      "name": "getGeolocationsOfGeocache",
      "outputs": [
        {
          "internalType": "string[]",
          "name": "",
          "type": "string[]"
        }
      ],
      "stateMutability": "view",
      "type": "function"
    },
    {
      "inputs": [
        {
          "internalType": "uint256",
          "name": "",
          "type": "uint256"
        },
        {
          "internalType": "address",
          "name": "",
          "type": "address"
        }
      ],
      "name": "hasMintedTokenId",
      "outputs": [
        {
          "internalType": "bool",
          "name": "",
          "type": "bool"
        }
      ],
      "stateMutability": "view",
      "type": "function"
    },
    {
      "inputs": [
        {
          "internalType": "address",
          "name": "admin",
          "type": "address"
        }
      ],
      "name": "isAdmin",
      "outputs": [
        {
          "internalType": "bool",
          "name": "",
          "type": "bool"
        }
      ],
      "stateMutability": "view",
      "type": "function"
    },
    {
      "inputs": [
        {
          "internalType": "uint256",
          "name": "_geocacheId",
          "type": "uint256"
        },
        {
          "internalType": "address",
          "name": "_user",
          "type": "address"
        }
      ],
      "name": "mintItemInGeocache",
      "outputs": [],
      "stateMutability": "nonpayable",
      "type": "function"
    },
    {
      "inputs": [
        {
          "internalType": "uint256",
          "name": "_numItems",
          "type": "uint256"
        },
        {
          "internalType": "string",
          "name": "_tokenURI",
          "type": "string"
        },
        {
          "internalType": "string",
          "name": "_dateCreated",
          "type": "string"
        },
        {
          "internalType": "string[]",
          "name": "_itemGeolocations",
          "type": "string[]"
        },
        {
          "internalType": "string",
          "name": "_epicenterLat",
          "type": "string"
        },
        {
          "internalType": "string",
          "name": "_epicenterLong",
          "type": "string"
        },
        {
          "internalType": "uint256",
          "name": "_radius",
          "type": "uint256"
        },
        {
          "internalType": "string",
          "name": "_name",
          "type": "string"
        },
        {
          "internalType": "string",
          "name": "_originStory",
          "type": "string"
        }
      ],
      "name": "newGeocache",
      "outputs": [],
      "stateMutability": "nonpayable",
      "type": "function"
    },
    {
      "inputs": [],
      "name": "numActiveGeocaches",
      "outputs": [
        {
          "internalType": "uint256",
          "name": "",
          "type": "uint256"
        }
      ],
      "stateMutability": "view",
      "type": "function"
    },
    {
      "inputs": [],
      "name": "numGeocaches",
      "outputs": [
        {
          "internalType": "uint256",
          "name": "",
          "type": "uint256"
        }
      ],
      "stateMutability": "view",
      "type": "function"
    },
    {
      "inputs": [],
      "name": "owner",
      "outputs": [
        {
          "internalType": "address",
          "name": "",
          "type": "address"
        }
      ],
      "stateMutability": "view",
      "type": "function"
    },
    {
      "inputs": [],
      "name": "renounceOwnership",
      "outputs": [],
      "stateMutability": "nonpayable",
      "type": "function"
    },
    {
      "inputs": [
        {
          "internalType": "address",
          "name": "admin",
          "type": "address"
        }
      ],
      "name": "revokeAdmin",
      "outputs": [],
      "stateMutability": "nonpayable",
      "type": "function"
    },
    {
      "inputs": [
        {
          "internalType": "bytes4",
          "name": "interfaceId",
          "type": "bytes4"
        }
      ],
      "name": "supportsInterface",
      "outputs": [
        {
          "internalType": "bool",
          "name": "",
          "type": "bool"
        }
      ],
      "stateMutability": "view",
      "type": "function"
    },
    {
      "inputs": [
        {
          "internalType": "uint256",
          "name": "",
          "type": "uint256"
        }
      ],
      "name": "tokenIdToGeocache",
      "outputs": [
        {
          "internalType": "address",
          "name": "creator",
          "type": "address"
        },
        {
          "internalType": "string",
          "name": "tokenURI",
          "type": "string"
        },
        {
          "internalType": "string",
          "name": "dateCreated",
          "type": "string"
        },
        {
          "internalType": "uint256",
          "name": "numItems",
          "type": "uint256"
        },
        {
          "internalType": "bool",
          "name": "isActive",
          "type": "bool"
        },
        {
          "internalType": "string",
          "name": "epicenterLat",
          "type": "string"
        },
        {
          "internalType": "string",
          "name": "epicenterLong",
          "type": "string"
        },
        {
          "internalType": "string",
          "name": "name",
          "type": "string"
        },
        {
          "internalType": "uint256",
          "name": "radius",
          "type": "uint256"
        },
        {
          "internalType": "string",
          "name": "originStory",
          "type": "string"
        }
      ],
      "stateMutability": "view",
      "type": "function"
    },
    {
      "inputs": [
        {
          "internalType": "address",
          "name": "_creatorContract",
          "type": "address"
        },
        {
          "internalType": "uint256",
          "name": "_tokenId",
          "type": "uint256"
        }
      ],
      "name": "tokenURI",
      "outputs": [
        {
          "internalType": "string",
          "name": "",
          "type": "string"
        }
      ],
      "stateMutability": "view",
      "type": "function"
    },
    {
      "inputs": [
        {
          "internalType": "address",
          "name": "newOwner",
          "type": "address"
        }
      ],
      "name": "transferOwnership",
      "outputs": [],
      "stateMutability": "nonpayable",
      "type": "function"
    },
    {
      "inputs": [
        {
          "internalType": "uint256",
          "name": "_tokenId",
          "type": "uint256"
        },
        {
          "internalType": "string",
          "name": "_newTokenURI",
          "type": "string"
        }
      ],
      "name": "updateGeocacheTokenURI",
      "outputs": [],
      "stateMutability": "nonpayable",
      "type": "function"
    }
  ],
  "bytecode": "0x60a06040523480156200001157600080fd5b506040516200255a3803806200255a8339810160408190526200003491620000a1565b6200003f3362000051565b6001600160a01b0316608052620000d3565b600080546001600160a01b038381166001600160a01b0319831681178455604051919092169283917f8be0079c531659141344cd1fd0a4f28419497f9722a3daafe3b4186f6b6457e09190a35050565b600060208284031215620000b457600080fd5b81516001600160a01b0381168114620000cc57600080fd5b9392505050565b608051612456620001046000396000818161019b015281816109d301528181610e30015261191c01526124566000f3fe608060405234801561001057600080fd5b506004361061012c5760003560e01c80637f49cac0116100ad578063cb948fc511610071578063cb948fc5146102ca578063e9dc6375146102d3578063efa3c8b4146102f3578063f2fde38b14610313578063fa5ab3791461032657600080fd5b80637f49cac01461024657806380b501b3146102745780638da5cb5b14610287578063996f12de14610298578063c1361b67146102c157600080fd5b80635620749f116100f45780635620749f146101d55780636325ce2f146102035780636d73e66914610216578063715018a6146102295780637a50fc4a1461023157600080fd5b806301ffc9a71461013157806324d7806c146101595780632d3456701461016c57806331ae450b146101815780633dae35ce14610196575b600080fd5b61014461013f366004611c60565b610339565b60405190151581526020015b60405180910390f35b610144610167366004611ca6565b6103b5565b61017f61017a366004611ca6565b6103ee565b005b61018961044c565b6040516101509190611d05565b6101bd7f000000000000000000000000000000000000000000000000000000000000000081565b6040516001600160a01b039091168152602001610150565b6101f56101e3366004611d18565b60066020526000908152604090205481565b604051908152602001610150565b61017f610211366004611de6565b6104fa565b61017f610224366004611ca6565b61054d565b61017f6105a5565b6102396105b9565b6040516101509190611e5c565b610144610254366004611e6f565b600760209081526000928352604080842090915290825290205460ff1681565b61017f610282366004611f4d565b61072c565b6000546001600160a01b03166101bd565b6102ab6102a6366004611d18565b610a9d565b6040516101509a999897969594939291906120c8565b6101f560045481565b6101f560035481565b6102e66102e1366004612178565b610e2c565b60405161015091906121a2565b610306610301366004611d18565b610f0e565b604051610150919061220a565b61017f610321366004611ca6565b610ffd565b61017f610334366004611e6f565b611078565b60006001600160e01b0319821663e9dc637560e01b148061036a57506001600160e01b031982166354c1bcd960e01b145b8061038557506001600160e01b03198216636cdb3d1360e11b145b806103a057506001600160e01b031982166301ffc9a760e01b145b806103af57506103af826116a6565b92915050565b6000816001600160a01b03166103d36000546001600160a01b031690565b6001600160a01b031614806103af57506103af6001836116db565b6103f6611700565b6104016001826116db565b156104495760405133906001600160a01b038316907f7c0c3c84c67c85fcac635147348bfe374c24a1a93d0366d1cfe9d8853cbf89d590600090a361044760018261175a565b505b50565b6060610458600161176f565b6001600160401b0381111561046f5761046f611d31565b604051908082528060200260200182016040528015610498578160200160208202803683370190505b50905060005b6104a8600161176f565b8110156104f6576104ba600182611779565b8282815181106104cc576104cc61221d565b6001600160a01b0390921660209283029190910190910152806104ee81612249565b91505061049e565b5090565b600082815260056020526040902080546001600160a01b03163314610532576040516393687c0b60e01b815260040160405180910390fd5b81516105479060018301906020850190611b1b565b50505050565b610555611700565b6105606001826116db565b6104495760405133906001600160a01b038316907f7e1a1a08d52e4ba0e21554733d66165fd5151f99460116223d9e3a608eec5cb190600090a3610447600182611785565b6105ad611700565b6105b7600061179a565b565b606060006003546001600160401b038111156105d7576105d7611d31565b60405190808252806020026020018201604052801561067057816020015b61065d60405180610160016040528060006001600160a01b031681526020016060815260200160608152602001600081526020016000151581526020016060815260200160608152602001606081526020016060815260200160008152602001606081525090565b8152602001906001900390816105f55790505b50905060006004546001600160401b0381111561068f5761068f611d31565b6040519080825280602002602001820160405280156106b8578160200160208202803683370190505b5090506000805b600354811015610723576000818152600560205260409020600481015460ff161561071057818484815181106106f7576106f761221d565b60209081029190910101528261070c81612249565b9350505b508061071b81612249565b9150506106bf565b50909392505050565b604080516101608101825233815260208082018b81528284018b9052606083018d905260016080840181905260a084018a905260c0840189905260e084018b905261010084018790526101208401889052610140840186905260035460009081526005845294909420835181546001600160a01b0319166001600160a01b0390911617815590518051939491936107cb93928501929190910190611b1b565b50604082015180516107e7916002840191602090910190611b1b565b5060608201516003820155608082015160048201805460ff191691151591909117905560a08201518051610825916005840191602090910190611b1b565b5060c08201518051610841916006840191602090910190611b1b565b5060e0820151805161085d916007840191602090910190611b9b565b50610100820151805161087a916008840191602090910190611b1b565b50610120820151600982015561014082015180516108a291600a840191602090910190611b1b565b509050506003600081546108b590612249565b90915550600480546000906108c990612249565b909155506040805160018082528183019092526000916020808301908036833701905050905033816000815181106109035761090361221d565b6001600160a01b0392909216602092830291909101909101526040805160018082528183019092526000918160200160208202803683370190505090506001816000815181106109555761095561221d565b6020908102919091010152604080516001808252818301909252600091816020015b606081526020019060019003908161097757905050905060405180602001604052806000815250816000815181106109b1576109b161221d565b6020908102919091010152604051634637423960e11b81526001600160a01b037f00000000000000000000000000000000000000000000000000000000000000001690638c6e847290610a0c90869086908690600401612262565b6000604051808303816000875af1158015610a2b573d6000803e3d6000fd5b505050506040513d6000823e601f3d908101601f19168201604052610a5391908101906122a5565b507f6eb6ad71f0a3b9f2fa6652a096ca4bd0851eb41211391b7aab2e8564794aac2a33868e604051610a8793929190612335565b60405180910390a1505050505050505050505050565b600560205260009081526040902080546001820180546001600160a01b039092169291610ac990612369565b80601f0160208091040260200160405190810160405280929190818152602001828054610af590612369565b8015610b425780601f10610b1757610100808354040283529160200191610b42565b820191906000526020600020905b815481529060010190602001808311610b2557829003601f168201915b505050505090806002018054610b5790612369565b80601f0160208091040260200160405190810160405280929190818152602001828054610b8390612369565b8015610bd05780601f10610ba557610100808354040283529160200191610bd0565b820191906000526020600020905b815481529060010190602001808311610bb357829003601f168201915b50505050600383015460048401546005850180549495929460ff909216935090610bf990612369565b80601f0160208091040260200160405190810160405280929190818152602001828054610c2590612369565b8015610c725780601f10610c4757610100808354040283529160200191610c72565b820191906000526020600020905b815481529060010190602001808311610c5557829003601f168201915b505050505090806006018054610c8790612369565b80601f0160208091040260200160405190810160405280929190818152602001828054610cb390612369565b8015610d005780601f10610cd557610100808354040283529160200191610d00565b820191906000526020600020905b815481529060010190602001808311610ce357829003601f168201915b505050505090806008018054610d1590612369565b80601f0160208091040260200160405190810160405280929190818152602001828054610d4190612369565b8015610d8e5780601f10610d6357610100808354040283529160200191610d8e565b820191906000526020600020905b815481529060010190602001808311610d7157829003601f168201915b50505050509080600901549080600a018054610da990612369565b80601f0160208091040260200160405190810160405280929190818152602001828054610dd590612369565b8015610e225780601f10610df757610100808354040283529160200191610e22565b820191906000526020600020905b815481529060010190602001808311610e0557829003601f168201915b505050505090508a565b60607f00000000000000000000000000000000000000000000000000000000000000006001600160a01b0316836001600160a01b031614610e6c57600080fd5b60008281526005602052604090206001018054610e8890612369565b80601f0160208091040260200160405190810160405280929190818152602001828054610eb490612369565b8015610f015780601f10610ed657610100808354040283529160200191610f01565b820191906000526020600020905b815481529060010190602001808311610ee457829003601f168201915b5050505050905092915050565b606060056000838152602001908152602001600020600701805480602002602001604051908101604052809291908181526020016000905b82821015610ff2578382906000526020600020018054610f6590612369565b80601f0160208091040260200160405190810160405280929190818152602001828054610f9190612369565b8015610fde5780601f10610fb357610100808354040283529160200191610fde565b820191906000526020600020905b815481529060010190602001808311610fc157829003601f168201915b505050505081526020019060010190610f46565b505050509050919050565b611005611700565b6001600160a01b03811661106f5760405162461bcd60e51b815260206004820152602660248201527f4f776e61626c653a206e6577206f776e657220697320746865207a65726f206160448201526564647265737360d01b60648201526084015b60405180910390fd5b6104498161179a565b611080611700565b60035482106110a257604051634a1850bf60e11b815260040160405180910390fd5b6110ad6003546117ea565b60008281526007602090815260408083206001600160a01b038516845290915290205460ff16156110f157604051634641bb4760e01b815260040160405180910390fd5b60008281526005602090815260408083208151610160810190925280546001600160a01b03168252600181018054929391929184019161113090612369565b80601f016020809104026020016040519081016040528092919081815260200182805461115c90612369565b80156111a95780601f1061117e576101008083540402835291602001916111a9565b820191906000526020600020905b81548152906001019060200180831161118c57829003601f168201915b505050505081526020016002820180546111c290612369565b80601f01602080910402602001604051908101604052809291908181526020018280546111ee90612369565b801561123b5780601f106112105761010080835404028352916020019161123b565b820191906000526020600020905b81548152906001019060200180831161121e57829003601f168201915b505050918352505060038201546020820152600482015460ff161515604082015260058201805460609092019161127190612369565b80601f016020809104026020016040519081016040528092919081815260200182805461129d90612369565b80156112ea5780601f106112bf576101008083540402835291602001916112ea565b820191906000526020600020905b8154815290600101906020018083116112cd57829003601f168201915b5050505050815260200160068201805461130390612369565b80601f016020809104026020016040519081016040528092919081815260200182805461132f90612369565b801561137c5780601f106113515761010080835404028352916020019161137c565b820191906000526020600020905b81548152906001019060200180831161135f57829003601f168201915b5050505050815260200160078201805480602002602001604051908101604052809291908181526020016000905b828210156114565783829060005260206000200180546113c990612369565b80601f01602080910402602001604051908101604052809291908181526020018280546113f590612369565b80156114425780601f1061141757610100808354040283529160200191611442565b820191906000526020600020905b81548152906001019060200180831161142557829003601f168201915b5050505050815260200190600101906113aa565b50505050815260200160088201805461146e90612369565b80601f016020809104026020016040519081016040528092919081815260200182805461149a90612369565b80156114e75780601f106114bc576101008083540402835291602001916114e7565b820191906000526020600020905b8154815290600101906020018083116114ca57829003601f168201915b5050505050815260200160098201548152602001600a8201805461150a90612369565b80601f016020809104026020016040519081016040528092919081815260200182805461153690612369565b80156115835780601f1061155857610100808354040283529160200191611583565b820191906000526020600020905b81548152906001019060200180831161156657829003601f168201915b505050505081525050905080608001516115b05760405163d7c0312f60e01b815260040160405180910390fd5b60008381526006602052604081208054916115ca83612249565b909155505060008381526007602090815260408083206001600160a01b03861684528252808320805460ff191660011790556060840151868452600690925290912054036116405760008381526005602052604081206004908101805460ff19169055805490919061163b906123a3565b909155505b61164a838361182f565b6000838152600660209081526040918290205482516001600160a01b03861681529182018690528183015290517f7ed2deb7015f264677924005fd808fb4d654bcd7a3ba0a12ede865d506f962df9181900360600190a1505050565b60006001600160e01b03198216632a9f3abf60e11b14806103af57506301ffc9a760e01b6001600160e01b03198316146103af565b6001600160a01b038116600090815260018301602052604081205415155b9392505050565b6000546001600160a01b031633146105b75760405162461bcd60e51b815260206004820181905260248201527f4f776e61626c653a2063616c6c6572206973206e6f7420746865206f776e65726044820152606401611066565b60006116f9836001600160a01b03841661198e565b60006103af825490565b60006116f98383611a81565b60006116f9836001600160a01b038416611aab565b600080546001600160a01b038381166001600160a01b0319831681178455604051919092169283917f8be0079c531659141344cd1fd0a4f28419497f9722a3daafe3b4186f6b6457e09190a35050565b6104498160405160240161180091815260200190565b60408051601f198184030181529190526020810180516001600160e01b031663f82c50f160e01b179052611afa565b6040805160018082528183019092526000916020808301908036833701905050905081816000815181106118655761186561221d565b6001600160a01b03929092166020928302919091019091015260408051600180825281830190925260009181602001602082028036833701905050905083816000815181106118b6576118b661221d565b60209081029190910101526040805160018082528183019092526000918160200160208202803683370190505090506001816000815181106118fa576118fa61221d565b60209081029190910101526040516339b2213760e21b81526001600160a01b037f0000000000000000000000000000000000000000000000000000000000000000169063e6c884dc90611955908690869086906004016123ba565b600060405180830381600087803b15801561196f57600080fd5b505af1158015611983573d6000803e3d6000fd5b505050505050505050565b60008181526001830160205260408120548015611a775760006119b26001836123f3565b85549091506000906119c6906001906123f3565b9050818114611a2b5760008660000182815481106119e6576119e661221d565b9060005260206000200154905080876000018481548110611a0957611a0961221d565b6000918252602080832090910192909255918252600188019052604090208390555b8554869080611a3c57611a3c61240a565b6001900381819060005260206000200160009055905585600101600086815260200190815260200160002060009055600193505050506103af565b60009150506103af565b6000826000018281548110611a9857611a9861221d565b9060005260206000200154905092915050565b6000818152600183016020526040812054611af2575081546001818101845560008481526020808220909301849055845484825282860190935260409020919091556103af565b5060006103af565b80516a636f6e736f6c652e6c6f67602083016000808483855afa5050505050565b828054611b2790612369565b90600052602060002090601f016020900481019282611b495760008555611b8f565b82601f10611b6257805160ff1916838001178555611b8f565b82800160010185558215611b8f579182015b82811115611b8f578251825591602001919060010190611b74565b506104f6929150611bf4565b828054828255906000526020600020908101928215611be8579160200282015b82811115611be85782518051611bd8918491602090910190611b1b565b5091602001919060010190611bbb565b506104f6929150611c09565b5b808211156104f65760008155600101611bf5565b808211156104f6576000611c1d8282611c26565b50600101611c09565b508054611c3290612369565b6000825580601f10611c42575050565b601f0160209004906000526020600020908101906104499190611bf4565b600060208284031215611c7257600080fd5b81356001600160e01b0319811681146116f957600080fd5b80356001600160a01b0381168114611ca157600080fd5b919050565b600060208284031215611cb857600080fd5b6116f982611c8a565b600081518084526020808501945080840160005b83811015611cfa5781516001600160a01b031687529582019590820190600101611cd5565b509495945050505050565b6020815260006116f96020830184611cc1565b600060208284031215611d2a57600080fd5b5035919050565b634e487b7160e01b600052604160045260246000fd5b604051601f8201601f191681016001600160401b0381118282101715611d6f57611d6f611d31565b604052919050565b600082601f830112611d8857600080fd5b81356001600160401b03811115611da157611da1611d31565b611db4601f8201601f1916602001611d47565b818152846020838601011115611dc957600080fd5b816020850160208301376000918101602001919091529392505050565b60008060408385031215611df957600080fd5b8235915060208301356001600160401b03811115611e1657600080fd5b611e2285828601611d77565b9150509250929050565b600081518084526020808501945080840160005b83811015611cfa57815187529582019590820190600101611e40565b6020815260006116f96020830184611e2c565b60008060408385031215611e8257600080fd5b82359150611e9260208401611c8a565b90509250929050565b60006001600160401b03821115611eb457611eb4611d31565b5060051b60200190565b600082601f830112611ecf57600080fd5b81356020611ee4611edf83611e9b565b611d47565b82815260059290921b84018101918181019086841115611f0357600080fd5b8286015b84811015611f425780356001600160401b03811115611f265760008081fd5b611f348986838b0101611d77565b845250918301918301611f07565b509695505050505050565b60008060008060008060008060006101208a8c031215611f6c57600080fd5b8935985060208a01356001600160401b0380821115611f8a57600080fd5b611f968d838e01611d77565b995060408c0135915080821115611fac57600080fd5b611fb88d838e01611d77565b985060608c0135915080821115611fce57600080fd5b611fda8d838e01611ebe565b975060808c0135915080821115611ff057600080fd5b611ffc8d838e01611d77565b965060a08c013591508082111561201257600080fd5b61201e8d838e01611d77565b955060c08c0135945060e08c013591508082111561203b57600080fd5b6120478d838e01611d77565b93506101008c013591508082111561205e57600080fd5b5061206b8c828d01611d77565b9150509295985092959850929598565b6000815180845260005b818110156120a157602081850181015186830182015201612085565b818111156120b3576000602083870101525b50601f01601f19169290920160200192915050565b6001600160a01b038b168152610140602082018190526000906120ed8382018d61207b565b90508281036040840152612101818c61207b565b9050896060840152881515608084015282810360a0840152612123818961207b565b905082810360c0840152612137818861207b565b905082810360e084015261214b818761207b565b905084610100840152828103610120840152612167818561207b565b9d9c50505050505050505050505050565b6000806040838503121561218b57600080fd5b61219483611c8a565b946020939093013593505050565b6020815260006116f9602083018461207b565b600081518084526020808501808196508360051b8101915082860160005b858110156121fd5782840389526121eb84835161207b565b988501989350908401906001016121d3565b5091979650505050505050565b6020815260006116f960208301846121b5565b634e487b7160e01b600052603260045260246000fd5b634e487b7160e01b600052601160045260246000fd5b60006001820161225b5761225b612233565b5060010190565b6060815260006122756060830186611cc1565b82810360208401526122878186611e2c565b9050828103604084015261229b81856121b5565b9695505050505050565b600060208083850312156122b857600080fd5b82516001600160401b038111156122ce57600080fd5b8301601f810185136122df57600080fd5b80516122ed611edf82611e9b565b81815260059190911b8201830190838101908783111561230c57600080fd5b928401925b8284101561232a57835182529284019290840190612311565b979650505050505050565b6001600160a01b03841681526060602082018190526000906123599083018561207b565b9050826040830152949350505050565b600181811c9082168061237d57607f821691505b60208210810361239d57634e487b7160e01b600052602260045260246000fd5b50919050565b6000816123b2576123b2612233565b506000190190565b6060815260006123cd6060830186611cc1565b82810360208401526123df8186611e2c565b9050828103604084015261229b8185611e2c565b60008282101561240557612405612233565b500390565b634e487b7160e01b600052603160045260246000fdfea2646970667358221220b4e054e6eb92fe5d616690f7eb8bead1da907fb26ad749ca260be399493d7f1b64736f6c634300080d0033",
  "linkReferences": {},
  "deployedLinkReferences": {}
}